:020000040800F2
:10000000781A00202D290008ED270008EF270008A6
:10001000F1270008F3270008F5270008000000007A
:10002000000000000000000000000000F7270008AA
:10003000F927000800000000FB270008FD27000842
:1000400055290008592900085D2900086129000880
:1000500065290008692900086D2900087129000830
:100060000B28000875290008792900087D29000857
:100070008129000885290008892900088D290008A0
:100080009129000895290008992900089D29000850
:10009000A1290008A5290008A9290008AD29000800
:1000A000B1290008B5290008B9290008BD290008B0
:1000B000C1290008C5290008C9290008CD29000860
:1000C000D1290008D5290008D9290008DD29000810
:1000D000E1290008E5290008E9290008ED290008C0
:1000E000F1290008F5290008F9290008FD29000870
:1000F000012A0008052A0008092A00080D2A00081C
:10010000112A0008152A0008192A00081D2A0008CB
:1001100011280008212A0008252A0008292A000899
:10012000172800082D2A0008312A00081D28000879
:10013000352A0008392A00083D2A0008412A00080B
:10014000452A0008492A00084D2A0008512A0008BB
:10015000552A0008592A00085D2A0008612A00086B
:10016000652A0008692A00086D2A0008712A00081B
:10017000752A0008792A00087D2A0008000000007E
:10018000812A000838B5040001D1012032BD0020C9
:10019000A06204F15005687820B900222A70204638
:1001A00000F012FC0221697000F064FB6268A06834
:1001B000E168A369024320690A43616902430A4373
:1001C00003F40073E069216A1A430243A06A2368BA
:1001D0000A4302431A60A169606A2268090C01F0AF
:1001E0000401014351602168C86920F40060C861BE
:1001F0000021696001206870002032BD2DE9F843BC
:10020000074607F15006002530780C46914698467F
:10021000012808BF022000F096800120307000F015
:1002200081FC7178012918BF022554D1002C18BF18
:10023000B9F1000F00F08380032171700023736017
:100240003C63A7F83490A7F836900021B963BB87C8
:10025000F9877B643964BB68B3F5004F04D13B6810
:10026000196841F48041196039680B685C0603D451
:100270000B6843F040030B604446F968B1F5006F2A
:1002800079682CD1002918BFB9F1010F09D13B6B56
:1002900039681A88CA603B6B9A1C3A63F98E4A1E09
:1002A000FA86804606E03A6B1188C1603A6B901C72
:1002B00000F0C7F9F88E002835D0386882689107B9
:1002C000F1D400F02FFCA0EB0800A04204D314F1FD
:1002D000010FEFD0032533E0002CEBD1FAE7002922
:1002E00018BFB9F1010F00F0C2F9804608E03A6B7F
:1002F00011780173386B411C3963F88E411EF98601
:10030000F88E80B1386882689107F0D400F00AFC5A
:10031000A0EB0800A04203D314F1010FF0D0D9E7FD
:10032000002CEDD1D6E742462146384600F005FBC9
:1003300008B12020706000F08FF9706800B10125CD
:1003400000F09DF82846BDE8F2832DE9F843074602
:10035000002478680D469146984607F15006B0F59E
:10036000827F04BFB86800280BD14FF0040C86F8D8
:1003700001C0CDF800804B462A46384600F084F88C
:100380007BE03078012808BF022076D00120307051
:1003900000F0C8FB7178012918BF02246AD1002D32
:1003A00018BFB9F1000F64D004227270002171608F
:1003B000BD63A7F83C90A7F83E903963B986002248
:1003C000FA8639647A64B968B1F5004F04D13A68A5
:1003D000116821F48041116039680A68530600F001
:1003E00035F90546F968002926D108E0007BB96B8C
:1003F0000870B86B421CBA63F98F481EF887F88FF3
:1004000068B338688268D107F0D400F08BFB401BDA
:10041000404504D318F1010FF1D003242AE0B8F1CC
:10042000000FECD1F9E7C168B86B0180B96B8A1C89
:10043000BA63F98F481EF887F88F80B138688168F1
:10044000CA07F0D400F06EFB401B404503D318F1FF
:10045000010FF1D0E1E7B8F1000FEDD1DDE72A4659
:100460004146384600F054FA08B1202070607068A8
:1004700000B1012400F003F82046BDE8F28301201A
:1004800070700021317070472DE9FC47074607F175
:100490005006012530788A4691464FF00008012821
:1004A00008BF022000F0CB801C46357000F03AFBFC
:1004B0007278012A23460AD07968B1F5827F02BF9B
:1004C000B9680029042A02D04FF00208B4E0BAF15A
:1004D000000F18BFB9F1000F00D00CB9A846ABE06F
:1004E00096F801C0BCF1040F1CBF4FF0050E86F852
:1004F00001E0C446C6F804C0C7F83890FC87BC8742
:10050000C7F830A0FC86BC86C7F84080C7F8448096
:1005100039680A68540600F099F8F9680A9CB1F540
:10052000006F796841D1002918BF012B09D13B6BBD
:1005300039681A88CA603A6B911C3963FA8E511E69
:10054000F9868146F88E002804BFF88F002866D00F
:100550003968886882070CD5F88E002818BF002DEE
:1005600007D0386B0288CA600025396B881C00F000
:1005700068F839688868C2070BD5F88F48B1C86831
:10058000B96B08800125B86B821CBA63F88F411ED5
:10059000F98700F0C7FAA0EB0900A042D2D314F10A
:1005A000010FCFD04FF0030846E0002918BF012B00
:1005B00000F05DF88146F88E002804BFF88F00280F
:1005C0002DD03968886882070CD5F88E002818BFAE
:1005D000002D07D0386B02780A730025396B481C50
:1005E00000F02FF839688868C2070BD5F88F48B13A
:1005F000C868B96B08700125BA6B501CB863F98FD5
:10060000481EF88700F08EFAA0EB0900A04203D341
:1006100014F1010FCFD0C5E7002CCCD1C2E74A4678
:100620002146384600F089F920B120204FF001081A
:10063000706001E000F010F8FFF721FF4046BDE8D0
:10064000F6873863F98E481EF886704703D40A6827
:1006500042F040020A607047B86838B90021009142
:100660003968C868009089680091009A704709D17C
:100670003B6B39681A780A733A6B511C3963FA8EEE
:10068000511EF9867047F8B5044604F1500600255E
:100690003078012801D10220F2BD01203070777836
:1006A000012F09D06068B0F5827F02BFA0680028E2
:1006B000042F01D0022568E0002918BF002A01D0CC
:1006C000180001D1012560E0707804281CBF0527BF
:1006D0007770002070602163A386E386A263A387FE
:1006E000E38720646064E06C7278042A07D10FF21B
:1006F000551101640FF29D00E16CC86306E00FF232
:100700004D120FF2F9010264E06CC163E06C0FF26C
:100710004511C164E06C0565E38F2068A26B00F1B0
:100720000C01E06C00F07CFAA8B92168486840F040
:1007300001004860A06C0564A06CC563A06CC56432
:10074000A06C0565E38E2068216B00F10C02A06CA3
:1007500000F066FA38B1706840F010007060012552
:100760000120707011E0206801684A0603D4016816
:1007700041F0400101602168486840F02000486075
:100780002068416841F00201416000203070284635
:10079000F2BD000038B500F01CF800F015F80ED4DA
:1007A00000F01BF800F01FF86421204600F0B0F8BC
:1007B00008B12021616500F03DF800B119E0204644
:1007C000BDE8324000F002BD2B6819680246C8053A
:1007D00070470546AC6B00F0A5B92168486820F069
:1007E00020004860704721684868800880004860A1
:1007F00070472046BDE8324000F04CBD38B5FFF7E9
:10080000E8FFFFF7E1FF0DD4FFF7E7FF00F00FF877
:1008100000F0A5F8FFF7E7FF0021E18600F00AF8F5
:1008200000B1E6E72046BDE8324000F0D0BC6421CC
:10083000204682E00020E087012184F85110606D9D
:1008400070470000806B00F026BD0000806B00F058
:1008500023BD0000806B02685168890889005160DF
:100860000121426D42F01002426580F8511000F003
:1008700011BD00002168086820F040000860704742
:100880002DE9F041069F05460E4690461C46296814
:1008900088683040B0420CBF01210021414534D06E
:1008A00014F1010FF3D000F03DF9C01BA04201D2BA
:1008B000002CECD12968486820F0E00048606868A6
:1008C000B0F5827F0BD1A868B0F5004F18BFB0F526
:1008D000806F04D12968086820F040000860A86A89
:1008E000B0F5005F09D12868016821F4005101606A
:1008F0002968086840F40050086005F150000122A2
:10090000427000210170032000E00020BDE8F0816A
:100910001CB504460B466068B0F5827F08D1A0681C
:10092000B0F5004F18BFB0F5806F01D1FFF7A2FFFF
:10093000009280210022204605E01CB500920B4663
:10094000044600228021FFF79BFF10B100F002F85F
:10095000032016BD606D40F020006065704718B13F
:10096000606D40F02000606570470EE002684368EB
:10097000024408305FEAC37C44BF4B445B1E52F81C
:1009800004CB43F804CB091FF9D150F8041B00290C
:10099000ECD1704781B0002000905948416841F483
:1009A00080414160416801F4804100910021009B39
:1009B0000091026842F080520260006800F08050AE
:1009C0000090009801B070472DE9F04186B000F02A
:1009D00090F823684B498B4243D1002000904FF0A0
:1009E000C0664948494D4169DFF8248141F480518E
:1009F00041614FF48067416901F4805100F073F860
:100A000042F0020202600222006800F00200009040
:100A100038200099029200210391019005210322C0
:100A20000591049201A93B4800F038FCC5F800800C
:100A30006E600020A86000F017F808B100F028FCF4
:100A4000E564AC6308F14800334D28606E604021D6
:100A5000A960002000F008F808B100F019FCA564B6
:100A6000AC6306B0BDE8F081E8602F616861A86101
:100A7000E86128626862284600F05AB810B586B06E
:100A800000F037F8236825498B422AD100200090D6
:100A90001D48016941F400210161016901F400214F
:100AA00000F021F842F0040202600222006800F027
:100AB000040000904FF440600099029201210391DC
:100AC0000190082103220591049201A9144800F025
:100AD000E5FB00220021342000F007FD342000F067
:100AE00023FD06B010BD00910021009B009102681B
:100AF000704704461421002201A800F03DBD00000B
:100B00004038024000300140303802408415002057
:100B10001064024000040240E4150020004C004034
:100B20000008024001484068704700BF00000020F4
:100B300070B50446FFF7F6FF06460CB9012070BDFC
:100B400004F13405002028700221697000F062F879
:100B500022681168C80708D5FFF7E4FF801B062844
:100B6000F6D320212962032052E01368DFF8DC026B
:100B700061680340A0680B43E168034320690B43AD
:100B800061690343A0690B43E16903430B43216A95
:100B9000606A1943042803D1E06A0843216B0143CA
:100BA000116022685369606ADB08042840EAC303C5
:100BB0000AD1A66AE06A334330B1A16989B9002E2F
:100BC00018BF022E1FD016D35361204600F05AF9E9
:100BD000A96A3F228A408260002028620121697050
:100BE00070BDB1F5005F0AD1032EEDD8DFE806F045
:100BF0000D0B0D03E8E7B0F1C07FE5D105E0022E53
:100C000003D9F61EE0D1C001DED5402129620120C2
:100C1000687070BD2168086840084000086070472F
:100C2000F8B5044604F13407002538787E6A0128B7
:100C300001D10220F2BD01203870787801281DD141
:100C40004FF0020C87F801C000203862204600F007
:100C500009F9B86A3F2101FA00FCC6F808C020680B
:100C6000016841F016010160F86820B12168086848
:100C700040F00800086000F005F801E03D70022532
:100C80002846F2BD2168086840F0010008607047FE
:100C900090F83520022A03D0802141650120704759
:100CA000052180F835100168086840084000086098
:100CB000002070472DE9FC41064606F1340500206E
:100CC000634A00904FF416506F6A11683C68B1FB9C
:100CD000F0F8A86A082101FA00F004420ED030684A
:100CE00003685A070AD5036823F004030360A86A5F
:100CF0008140B960296A41F001012962A86A24FA99
:100D000000F2D1070BD5326851690A0607D50121D7
:100D100001FA00F0B860286A40F00200286204215D
:100D2000A86A81400C4208D033681A68900704D53D
:100D3000B960286A40F0040028621021A86A814046
:100D40000C421BD033681A68100717D5B960306899
:100D50000268510307D5006801030BD5696969B1C1
:100D6000304688470AE00168CA0503D4016821F0CB
:100D700008010160E96809B130468847A86A202166
:100D800081400C4241D032681068C3063DD5B9603D
:100D90003068697805291ED1026822F016020260C7
:100DA000316800F057F804BF6869002804D0306843
:100DB000016821F0080101603F22A86A8240BA6000
:100DC0000021297001226A70E96900293AD0304671
:100DD000BDE8FC41084701684A0307D500680103E4
:100DE0000FD4296989B1304688470EE00168CA05E9
:100DF00007D4016821F01001016000222A7001204F
:100E00006870A96809B130468847286AD0B1296A54
:100E1000C80711D5052169703168FFF7FCFE0098FD
:100E2000401C8045009003D332681168C807F6D48F
:100E300000222A7001216970A96919B13046BDE804
:100E4000FC410847BDE8F381000000003F8010F03E
:100E50000C000020486920F080004861E868002804
:100E60007047000030B50468256825F480252560AA
:100E700063608068402802D1A260E16030BDA1605B
:100E8000E26030BD10B501461822086807A400F0E2
:100E9000FF03103BB3FBF2F2800AA35CCB65800238
:100EA000042A28BF001D886510BD0000000610162A
:100EB000000610162DE9F84386B000F067FB00F03D
:100EC0004AF91421684600F07BFB0020D94EDA4C29
:100ED000DA4DDFF86C93DB4FDFF86C8305903168F7
:100EE00041F010013160306800F0100000F025F989
:100EF00041F080013160306800F0800000F017F9A7
:100F000042F004023260306800F0040000F015F98D
:100F100041F001013160306800F0010000F007F994
:100F200042F008023260306800F0080005900020AE
:100F3000059905901B21326842F0020232600122BD
:100F4000306800F0020005900598204600F088FA0D
:100F500000224021204600F083FA00224FF4E07185
:100F6000284600F07DFA00224FF4A061484600F0C8
:100F700077FA00227B21384600F072FA01228021A4
:100F8000384600F06DFA00228021404600F068FAF1
:100F900004200021009002916946AC4A019220464B
:100FA00000F07CF95B210091012200210291039164
:100FB00001926946204600F071F94FF4E07200F0AA
:100FC000C2F8284600F06AF94FF400740222009437
:100FD000019200210291032204910392694628465E
:100FE00000F05CF94FF4A06200F0ADF8484600F064
:100FF00055F9FB20002100900122029103910192FA
:101000006946384600F04AF9802200F09CF84046D4
:1010100000F044F900200090002231688C4D8D4F83
:1010200041F4800131600021306800F480000090BC
:101030000098382000F059FA382000F075FA0022A4
:1010400000213B2000F051FA3B2000F06DFA002017
:101050004FF48271E86028616861A960182001215D
:101060002862A9610A20002128636962A962E962F5
:101070006F60EC61281DFFF785F808B100F008F9F2
:101080007548E8654FF4E1310C2000222867296695
:101090006A66AA66EA666A67AA6705F15C0000F0FC
:1010A00093FA08B100F0F4F800220021082000F0C3
:1010B0001CFA082000F038FA00220021342000F049
:1010C00014FA342000F030FA00F04CFD6349644B10
:1010D000644C654E00200870187001226349644B0F
:1010E0000870187005F15C00624900F002FB10E026
:1010F00003280CD100F002FD07E00228F8D10122FC
:101100004FF48071484600F0ABF90020287000F0E1
:1011100029FE3868C5F89C0028780128EDD141F2F5
:101120003011304600F04CFA00202060EEE70590C8
:101130000020059905903268704705900020059AB7
:1011400005903168704700920121019100220292BE
:1011500003926946704700B591B0302105A800F0B0
:101160002FFA1421684600F02BFA10210991012270
:1011700000210C910892C3210E91022005900B9042
:101180000D220F9004210D92109105A800F09AFFF6
:1011900008B100F07DF8022101910F204FF4805139
:1011A000009000234FF4A052049102930392032174
:1011B000684601F0EAF808B100F06AF84FF0E06222
:1011C0000021012001F065F911B000BD704710B594
:1011D000192000F097FD01224021174800F040F946
:1011E0002549C8780A791F4942EA0022086840F672
:1011F0009804A04204D21C4B23F81020401C086025
:101200001E48028010BD82B0026813498A420DD187
:101210000A2000900098411E00280091FAD1002277
:101220004FF48061064802B000F01AB902B070476E
:101230000000000030380240001002400008024068
:1012400000000240000C0240000402400000211097
:101250008014002000300140004C00401312002098
:10126000141200207016002010000020151200201B
:10127000161200201212002048160020B813002079
:1012800080B5052000F03EFDBDE8014000F018BD2E
:1012900072B6FEE770477047704700002DE9F84FBF
:1012A0000027794EDFF8E4814FF00F0902460B4624
:1012B0002EE0774DAA4214BF4FF0090E4FF0080EF2
:1012C0000EFA01F141EA040E724941F82CE0C543DF
:1012D00031685C682940E40348BF014331607168AC
:1012E0005C682940A40348BF01437160B1685C6831
:1012F0002940E40248BF0143B160F16805EA010CEE
:101300005968890248BF40EA0C0CC6F80CC07F1C23
:10131000186830FA07F100F0A1800121B9400840B7
:10132000F5D04FEA470C032404FA0CF46FEA040EDC
:101330005C68012C18BF022C03D0112C18BF122C92
:1013400010D19468DD680EEA040405FA0CF52C430C
:101350009460546824EA01015C68C4F30014BC4042
:1013600021435160D46899680EEA040401FA0CF133
:101370000C43D460B9005C68022C18BF122C11D148
:10138000FC0802EB840401F01C05D4F820B009FA33
:1013900005FA2BEA0A0BD3F810A00AFA05F545EA7C
:1013A0000B05256214680EEA04051C7904F0030499
:1013B00004FA0CF444EA050CC2F800C05C68E400CE
:1013C000A5D54FF0000ECDF800E04FEA970CD8F805
:1013D000004044F48044C8F8004001F00C01D8F803
:1013E00000E00EF4804ECDF800E009FA01F5009C13
:1013F000DFF8A0E05EF82C40AC43274DAA4208BFBE
:101400004FF0000E29D0254DAA4208BF4FF0010E23
:1014100023D0234DAA4208BF4FF0020E1DD0214D0C
:10142000AA4208BF4FF0030E17D01F4DAA4208BFB3
:101430004FF0040E11D01D4DAA4208BF4FF0050E0B
:101440000BD01B4DAA4208BF4FF0060E05D0194D18
:10145000AA427FF42EAF4FF0070E31E7BDE8F18FBF
:1014600002B909048161704742690A4218BF090440
:101470008161704710490A6803461A421CBF0B601D
:10148000FFF7FEBE70470000003C014044380240B8
:1014900000200240083801400000024000040240E1
:1014A00000080240000C02400010024000140240FC
:1014B00000180240001C0240143C01400A010100D7
:1014C00002D4274B5A547047264801F00F010144BB
:1014D00001F8042C704724490A6860F30A2240F29C
:1014E000FA5060F31F420A60704770B51E4C2368C3
:1014F000C3F302230124C3F10705052D2FBF0F26D7
:10150000C3F1070604FA06F6761E1D1D072D34BF2B
:101510000023DB1E3140994004FA03F3BDE870401C
:101520005B1E1A401143C9E7010007D4012200F0F5
:101530001F010E4B8A40400943F820207047401E8F
:10154000B0F1807F01D30120704709494860F02243
:101550000848027000238B6007220A600020704751
:1015600000E400E018ED00E00CED00E000E100E038
:1015700010E000E023ED00E04018491C1CBFB1F171
:10158000010100F8012DF9D17047000080B50B482A
:10159000016841F400710160026842F480620260F7
:1015A000016841F4807101600320FFF794FF0F2070
:1015B00001F012F8FFF7EEF9002002BD003C0240F6
:1015C000002201F029B8000038B5040001D1012043
:1015D00032BD04F13805687808B900F013F800F05E
:1015E00007F800F020F8FFE7486100F010F832BD7E
:1015F000242068702168C86820F40050C860204624
:1016000000F0EEB9002129702046FFF737BA2168B3
:10161000C86840F40050C8606A60202169702020CA
:10162000A870002070472168086920F49040086184
:1016300000222168486920F02A0070472DE9F8430C
:10164000054605F138070C46787820281646994655
:1016500047D1002C14BF002E012043D03878012838
:101660003FD001223A700021796021207870FFF785
:1016700059FAAE84EE84002280463A7003E028686E
:1016800014F8011B4160E88CE0B1E88C411EE9844C
:101690004346A868CDF80090B0F5805F0DD100F00A
:1016A00023F8C0B920882968C0F308004860286979
:1016B000002814BF641CA41CE5E700F015F80028FE
:1016C000DDD008E0CDF800904346002240212846B6
:1016D00000F0F7F808B1032004E020207870002023
:1016E00000E00220BDE8F28300228021284600F0BD
:1016F000E8B810B500F138039C78202C20D109B14E
:10170000140001D1012010BD1C78012C18D0012437
:101710001C7081628285C2850021596022229A70E4
:1017200019700168CA6842F48072CA60026851691F
:1017300041F0010151610168C86840F0200001E0FA
:10174000022010BDC860002010BD416921F0400199
:101750004161606B704729684869400840004861F2
:10176000704770B5044620680268014612F00F0FFA
:10177000CB68456903F0200002F0200107D1002961
:1017800018BF00285BD02046BDE87040DEE0EE07C1
:1017900002D413F4907F52D0D60705D5DB0503D5CC
:1017A000E66B46F00106E663560705D5EB0703D561
:1017B000E66B46F00206E663960705D5EB0703D510
:1017C000E66B46F00406E663120706D508B9EA0799
:1017D00003D5E36B43F00803E363E26B002A6FD0A9
:1017E00000291EBF0028204600F0B0F8206840699C
:1017F000E26B110701D440061BD5204600F08EF89D
:10180000206841694A060FD5FFF79FFF60B10FF2CC
:101810002D110165606BFFF73BFA002850D0606B1B
:10182000016DBDE8704008472046BDE8704000F0FB
:101830000CBF204600F009FF0020E06370BD1106D8
:101840002DD518062BD594F83910212938D1A06848
:10185000B0F5805F0DD1226A21681088C0F30800BE
:10186000486020690028206A0CBF811C411C21624D
:1018700005E0206A421C2262017820684160E08C09
:10188000401EE08480B2D8B92168C86820F080008A
:10189000C8602168C86840F04000C86070BD50064C
:1018A0000ED559060CD52068C16821F04001C160F1
:1018B0002046202184F83910BDE87040FFF7A3BC12
:1018C00070BD2DE9F041069C05460E4690461F4628
:1018D000296808683040B0420CBF01210021414511
:1018E00019D114F1010FF3D024B1FFF71BF9C01B7C
:1018F0008442EDD22968C86820F4D070C8602022E4
:10190000FFF729FF202105F1380041708270002186
:101910000170032000E00020BDE8F0810268D1687A
:1019200021F49071D1600268516949084900516100
:10193000202280F83A20704700000000806B0022CF
:10194000C2850021C18400F080BE000010B590F86F
:101950003A10222942D18168B1F5805F2AD1826A8A
:101960000169134601BB04686168C1F30801921C58
:1019700082621980C18D491EC18589B261BB02682E
:10198000D16821F02001D1600268D16821F4807112
:10199000D16001684A69520852004A61202180F8EA
:1019A0003A1000F0B5F917E00168496801F0FF014D
:1019B000521CDDE701690029816A05D14A1C826257
:1019C00003685A680A70D5E74B1C83620268536843
:1019D00003F07F030B70CDE7002010BD022010BD87
:1019E00070B50446192622681169E06821F4405157
:1019F000014311616FF06305D3683A48A168034061
:101A000020690B4361690343E0690B430343D360DF
:101A10005169A069344B21F440710143516133484D
:101A2000E169B1F5004F35D1824218BF9A4215D114
:101A300000F0A7FD46436068400000F059F805FB40
:101A40000015ED0032356421B5FBF1F14A0002F4D6
:101A5000F87202EB001201F007013EE000F089FD90
:101A6000464360684000B6FBF0F06421B0FBF1F142
:101A700005FB0105ED0032356420B5FBF0F04200B6
:101A800002F4F87202EB0112216800F007008018DE
:101A9000886070BD824218BF9A4207D100F071FD84
:101AA00046436068800000F023F809E000F061FD23
:101AB000616846438900B6FBF1F16420B1FBF0F0A8
:101AC00005FB00152D0132356421B5FBF1F101F064
:101AD000F00202EB001201F00F012068891881600A
:101AE00070BD0000F369FFFF0014014000100140C9
:101AF000B6FBF0F16422B1FBF2F0704770B57A4C9E
:101B000020210020217060700022784E4021304654
:101B1000FFF7A6FC1E2000F0F5F8754D00F0EAF87E
:101B200021462846FEF76AFB142000F0EBF800F08F
:101B3000E1F8611C2846FEF761FB142000F0E2F892
:101B400000F0D8F8211D2846FEF7FFFB1E2000F00C
:101B5000D9F8012240213046FFF782FCBDE87040F1
:101B60001E20CFE070B5614C0122102100F09FF8DB
:101B7000642000F06BFD012200F09EF8002200F0CE
:101B800095F8642000F062FD012200F08FF84FF418
:101B90007A7000F05BFD00F08EF800F0B1F8544D63
:101BA000514E4FF0FF331322311D2846FEF7CDFB77
:101BB00000F0A6F8012200F07FF800F0A1F8112053
:101BC00000F078F800F09CF800F069F800F098F860
:101BD000012200F071F800F093F845220021112055
:101BE00032707170B07000F066F800F087F800F0A5
:101BF00056F800F083F800F04BF800F07FF800F0A2
:101C000040F800F07BF8012200F056F800F078F878
:101C10001A2000F04FF800F073F800F040F800F0E0
:101C20006FF8012200F048F800F06AF8452232709F
:101C3000002110207170B07000F03DF800F05EF8E7
:101C400000F02DF800F05AF800F022F800F056F8F5
:101C500000F017F800F052F8012200F02DF800F023
:101C60004FF8102000F026F800F04AF800F017F8BE
:101C700000F046F8012200F01FF8BDE8704019207E
:101C800040E04FF0FF330122B11C2846FEF7B6BA00
:101C90004FF0FF330122711C2846FEF7AFBA4FF018
:101CA000FF33012231462846FEF7A8BA0821204614
:101CB000FFF7D6BB3070002240212046FFF7D0BB93
:101CC00080B5002240210948FFF7CAFB142000F02C
:101CD00019F80548BDE80050021D00F11801132352
:101CE0000348FEF7D0BC000044160020001002405C
:101CF000841400204FF0FF3301227047642001E07C
:101D00001920FFE7002100E0491C8142FCD3704705
:101D100038B5CC4CCC4A23780120A070607813549D
:101D2000401CC5B2CD2DA8BF002060700122214605
:101D3000C648FFF7DEFC0021E17031BD4278012A80
:101D40000AD0032A09D0052A09D0062A06D00F2A6C
:101D500006D0102A05D070475DE0AFE0F9E0E8E07A
:101D600006E138E1F8B5B74C217901292BD10020E3
:101D700020716778B64DB44E7A1C3146284600F083
:101D800079FC00236370CD213046FFF719FCCD218B
:101D9000B048FFF715FC07F1FE01C9B2284600F074
:101DA00077F9E9198A1E5178127842EA0122A5F8DA
:101DB000D020824204BF2878012804D13946284621
:101DC000BDE8F440BAE7F1BD9E488178012908D109
:101DD000C278511C652A03DB002101228170027147
:101DE000C170704770B506460C469B4D01224FF4FA
:101DF00080612846FFF734FB4FF47A732246314660
:101E00009248FFF71BFC2846BDE8704000224FF4C3
:101E10008061FFF725BB2DE9F8430746B878FC78C9
:101E20007D7944EA0024387945EA0025642DC8BF4D
:101E3000642528B200F018F9864E397831700021F7
:101E40007A787270B0700027F21C01E0D1547F1CC8
:101E5000FBB28342FADB21460023804A044606F1A6
:101E6000030806F1030917E0981003EB50704705CB
:101E70003F0E20F00700A742A3EB000C0BDA581826
:101E8000105C40B119F807E0012000FA0CF040EABC
:101E90000E0008F807005B1CAB42E5DBE11CC9B291
:101EA000304600F0F5F8F21C31191055641D000A97
:101EB0000871E1B23046BDE8F44393E72DE9F04103
:101EC0008378C2784479634D42EA0322037944EA75
:101ED000032403782B70002146786E706000A87090
:101EE0008C4666005E482F1D0FE0CBB29B1830F881
:101EF0001380EB1C4FEA182E03F80CE007F80C8057
:101F00000CF10203491C5FFA83FCB445EDDBF01CC5
:101F1000C1B2284600F0BCF8291D020A01F81420BD
:101F2000EB1C761D03F81400F1B22846BDE8F04121
:101F300058E710B58378C278447942EA03220379DE
:101F400054EA032318BF0123444CA354BDE81040B6
:101F500048E738B58478C3780579414A43EA0423D1
:101F6000447944EA052422F81340BDE8344039E7B7
:101F7000F8B501460A794D7945EA02250027374A26
:101F800017E0DCB20C444FF0010CE4790CFA00FCD1
:101F90001CEA0404A44618BF4FF0010C401CC0B258
:101FA00002F806C010F0070F02D108B15B1C002038
:101FB0007F1CFEB2AE42E4DB264C0622204600F037
:101FC00059FB0621204600F063F8A0710821000AA1
:101FD000E071204632E0F8B504464FF480512148C4
:101FE000FFF742FAA178E278657942EA0122217985
:101FF00045EA01250020002719490DE0231804EBCC
:10200000000EDB799EF808C04CEA0323B61821F8CD
:102010001630801CC0B27F1CFEB2AE42EEDB0D4D0E
:1020200006222146284600F025FB0621284600F01E
:102030002FF8A8710821000AE8712846BDE8F4408D
:10204000D0E600001212002018120020DC1400203C
:1020500040110020E812002000000240201500205E
:10206000B8130020000C024081B000218DF8001050
:1020700001B2002908D408389DF8001002B2491CAA
:10208000002A8DF80010F3D59DF8000001B07047CC
:1020900070B503464FF6FF70002400BF08A50CE0A2
:1020A0001A5D50400822064600F0010035F8100085
:1020B000521E80EA5600F6D1641C8C42F0D370BDEB
:1020C000000001A02DE9FC47040016D02078DFF8BD
:1020D000C874C10713D5B86800F00C00042807D0F5
:1020E000B86800F00C00082842D1786841023FD55A
:1020F0003868810303D56068002800F03C812078AF
:10210000DFF8A494810719D5B86810F00C0F07D038
:10211000B86800F00C00082846D17868410243D422
:102120003868810703D5E068012840F024813968C8
:10213000206921F0F80141EAC00139602178DFF817
:102140006C84080766D56069DFF86414002853D0F2
:1021500001220A60FEF7E6FC0546D8F80400810774
:1021600058D4FEF7DFFC401B0228F6D9032005E116
:102170006168B970606858B1FEF7D4FC05463968EB
:102180008803BCD4FEF7CEFC401B6528F7D3EDE7EF
:10219000FEF7C8FC054639688803B0D5FEF7C2FCD7
:1021A000401B6528F7D3E1E7E068B0B10122C9F828
:1021B0000020FEF7B7FC05463968880705D4FEF70E
:1021C000B1FC401B0228F7D9D0E73868216920F01C
:1021D000F80040EAC1003860B0E70022C9F80020EA
:1021E000FEF7A0FC054638688107A7D5FEF79AFCE4
:1021F000401B0228F7D9B9E70860FEF793FC0546B3
:10220000D8F80400810705D5FEF78CFC401B022896
:10221000F6D9ABE72078410751D5386C0025C100CD
:102220000BD4002000900125396C41F080513964B5
:10223000386C00F0805000900098DFF878633068C8
:1022400040F4807030603168CA0510D4306840F4C2
:1022500080703060FEF766FC82463068C10506D4A7
:10226000FEF760FCA0EB0A000228F6D97EE7A16821
:1022700088F8001041F28936A06868B1FEF752FC78
:102280008246D8F80010880714D4FEF74BFCA0EB68
:102290000A00B042F5D369E7FEF744FC8246D8F85D
:1022A0000000810706D5FEF73DFCA0EB0A00B04216
:1022B000F5D35BE71DB1386C20F080503864A0691D
:1022C00000285AD0B96801F00C01082937D002283B
:1022D00029D100F055F805463868810105D5FEF78B
:1022E00021FC401B6528F7D340E7E269206A616A58
:1022F0000243A06A400842EA8112401E42EA0042BC
:10230000E06A42EA00627A600121C9F86010FEF7D3
:1023100009FC0446386881012FD4FEF703FC001B3A
:102320006528F7D322E700F02BF8044638688101CE
:1023300023D5FEF7F7FB001B6528F7D316E7012826
:1023400019D07868E16900F480028A4202BF00F087
:102350003F02216A8A420ED1636AC0F38811994212
:1023600002BF00F44032A16A8A4202BF00F07060EE
:10237000E16A884201D0012000E00020BDE8F68734
:102380000020C9F86000FEF7CDBB2DE9F041040044
:102390000F4652D0884E306800F00F00B84202D28B
:1023A00000F071F849D121687B4D880712D54907A3
:1023B00003D5A86840F4E050A8602178080703D549
:1023C000A96841F46041A960A968A06821F0F00102
:1023D0000143A9602178C80727D56068012802D188
:1023E00029688A0303E0022803D129688A0103D4FB
:1023F00023E02B68990720D5AA68920840EA82005A
:10240000A860FEF78FFB8046A968606801F00C01A8
:10241000B1EB800F09D0FEF785FBA0EB080041F27D
:1024200089318842F0D303202BE0306800F00F00A0
:10243000874204D200F027F801D0012021E0217862
:10244000480705D5A968E06821F4E0510143A96077
:1024500021780A0706D5A868216920F4604040EA7F
:10246000C100A86000F05BF8AA685449C2F30312E7
:102470008B5C4A49D84008604A48006800F0ACF8D4
:102480000020BDE8F0813770316801F00F01B942DA
:10249000704770B586B00E461446494DE8B90090B5
:1024A000A96A41F00101A9620221A86A00F00100B5
:1024B00000904FF48070009A029101900021032255
:1024C00003910591049201A93E48FEF7E7FE2968B1
:1024D00021F0EC610E4326431EE000200090022212
:1024E000A96A41F00401A9624FF40071A86A00F0E2
:1024F00004000090009B3448019102920321049152
:1025000000220392059201A9FEF7C8FE286820F078
:102510007840064346EAC4062E6006B070BD30B56A
:102520002A4C606800F00C00042802D0082802D071
:102530001DE0274830BD226821680023480202F0D0
:102540003F0204D525682248C5F3881103E02168BD
:102550001348C1F38811A0FB010100F097F821682E
:10256000C1F30141491C4900B0FBF1F030BD0C48FA
:1025700030BD0A48124B00681A681649C2F382221D
:1025800006E006480E4B00681A681249C2F3423250
:10259000895CC84070470000003802400C000020F1
:1025A0000024F40008000020000047427038024078
:1025B000800E474200700040003C0240DC270008CB
:1025C000083802400000024000080240043802407F
:1025D00000127A004C29000838B50D4D0D4A2978B3
:1025E00004464FF47A731068B3FBF1F1B0FBF1F0DD
:1025F000FEF7A5FF50B9102C08D2002221464FF05B
:10260000FF30FEF772FFAC60002032BD012032BD0A
:10261000000000200C00002000B500BF130096460B
:102620009446103928BFA0E80C50FAD85FEA417CE4
:1026300028BF0CC048BF40F8042BC90728BF20F8AA
:10264000022B48BF00F8012B00BD704731B5FEF7E3
:1026500069FA009D15F1010F044602D0044908787B
:102660004519FEF75FFA001BA842FAD331BD00BF3F
:10267000000000204AB1000011F8013B521E00F892
:10268000013B1CBF11F8013BF8E77047D3BBD9B140
:10269000B2F5803F5BD2022A1ED98C46B1FBF2F123
:1026A00002FB11C31B0443EA1043B3FBF2FC02FB21
:1026B0001C3380B240EA0343B3FBF2F002FB10325A
:1026C00040EA0C4000237047022A05D98446B0FB3B
:1026D000F2F002FB10C270474AB105D100F00102CE
:1026E00049085FEA3000704700220023704700F07D
:1026F00051B80B000200002100207047F7D30022E0
:1027000000237047904271EB030CF2D370B5B1FA1D
:1027100081F4B3FA83F52C1BA340C4F1200532FAEF
:1027200005F63343A2405FF00046E64002E05B0856
:102730005FEA3202841A71EB030524BF2046294662
:102740007641F4D302000B003000002170BD70B55B
:10275000B1FA81F4B2FA82F5C4F120046419B4F13B
:102760002006DAD3B2405FF00044F440002502E0D6
:1027700052085FEA3303C61A71EB020E24BF3046DB
:10278000714664416D41F3D302000B002000290023
:1027900070BD00007047000010B50C490C4C086873
:1027A00040F00100086000238B600A68094802407D
:1027B0000A604C6000220B68074823F480230B60FA
:1027C000CA604FF00061016010BD00000038024097
:1027D00010300024FFFFF6FE08ED00E000000000CE
:1027E000000000000102030406070809FEE7FEE7F7
:1027F000FEE7FEE7FEE770477047704780B5FFF7DA
:10280000E3FABDE8014000F013B80420FEF732BE41
:102810000448FEF7A6BF0448FEF74CBA0348FEF78B
:1028200049BA0000DC14002084150020E4150020C3
:10283000024A51681078411851607047000000202A
:1028400030B4002412E050F8043BDA0744BF4B4494
:102850005B1E091F042943F8044BFAD21A468D0760
:1028600044BF1C80921CCB0748BF147050F8041B57
:102870000029E8D130BC704710B5034A7A440832C9
:10288000024C7C44A41D03E01C0000003C0000003E
:1028900004E01168101D114488470246A242F8D195
:1028A00010BD00009DFFFFFF641600001000002017
:1028B00000000000B7E0FFFF1000000080000000F3
:1028C000000000200000000000F00DF8002801D0FA
:1028D000FFF7D2FFAFF300800020AFF30080FEF7D8
:1028E000E9FA00F002F80120704700F001B800009A
:1028F0000746384600F002F8FBE7000080B5AFF36A
:102900000080024A11001820ABBEFBE7260002003F
:102910000548014603B4684680F30988AFF3008098
:10292000AFF30080FFF7D0FFA5EDF5FE014880472B
:1029300001480047992700081129000801000000FC
:1029400000000000100000000024F400000000005F
:1029500001020304FFF7FEBFFFF7FEBFFFF7FEBF54
:10296000FFF7FEBFFFF7FEBFFFF7FEBFFFF7FEBF9B
:10297000FFF7FEBFFFF7FEBFFFF7FEBFFFF7FEBF8B
:10298000FFF7FEBFFFF7FEBFFFF7FEBFFFF7FEBF7B
:10299000FFF7FEBFFFF7FEBFFFF7FEBFFFF7FEBF6B
:1029A000FFF7FEBFFFF7FEBFFFF7FEBFFFF7FEBF5B
:1029B000FFF7FEBFFFF7FEBFFFF7FEBFFFF7FEBF4B
:1029C000FFF7FEBFFFF7FEBFFFF7FEBFFFF7FEBF3B
:1029D000FFF7FEBFFFF7FEBFFFF7FEBFFFF7FEBF2B
:1029E000FFF7FEBFFFF7FEBFFFF7FEBFFFF7FEBF1B
:1029F000FFF7FEBFFFF7FEBFFFF7FEBFFFF7FEBF0B
:102A0000FFF7FEBFFFF7FEBFFFF7FEBFFFF7FEBFFA
:102A1000FFF7FEBFFFF7FEBFFFF7FEBFFFF7FEBFEA
:102A2000FFF7FEBFFFF7FEBFFFF7FEBFFFF7FEBFDA
:102A3000FFF7FEBFFFF7FEBFFFF7FEBFFFF7FEBFCA
:102A4000FFF7FEBFFFF7FEBFFFF7FEBFFFF7FEBFBA
:102A5000FFF7FEBFFFF7FEBFFFF7FEBFFFF7FEBFAA
:102A6000FFF7FEBFFFF7FEBFFFF7FEBFFFF7FEBF9A
:102A7000FFF7FEBFFFF7FEBFFFF7FEBFFFF7FEBF8A
:042A8000FFF7FEBF9F
:0400000508002911B5
:00000001FF
