:020000040800F2
:1000000068080020511F0008951E0008971E000870
:10001000991E00089B1E00089D1E0008000000009D
:100020000000000000000000000000009F1E00080B
:10003000A11E000800000000A31E0008A51E000865
:10004000611F0008651F0008691F00086D1F000878
:10005000711F0008751F0008791F00087D1F000828
:10006000811F0008851F0008891F00088D1F0008D8
:10007000911F0008951F0008991F00089D1F000888
:10008000A11F0008A51F0008A91F0008AD1F000838
:10009000B11F0008B51F0008B91F0008BD1F0008E8
:1000A000C11F0008C51F0008C91F0008CD1F000898
:1000B000D11F0008D51F0008D91F0008DD1F000848
:1000C000E11F0008E51F0008E91F0008ED1F0008F8
:1000D000F11F0008F51F0008F91F0008FD1F0008A8
:1000E0000120000805200008092000080D20000854
:1000F0001120000815200008192000081D20000804
:100100002120000825200008292000082D200008B3
:100110003120000835200008392000083D20000863
:10012000A91E00084120000845200008AF1E000855
:10013000492000084D2000085120000855200008E3
:10014000592000085D200008612000086520000893
:10015000692000086D200008712000087520000843
:10016000792000087D2000088120000885200008F3
:10017000892000088D200008912000080000000060
:100180009520000838B5040001D1012032BD0020BF
:10019000A06204F15005687820B900222A70204638
:1001A00000F0F4FC0221697000F050FC6268A06865
:1001B000E168A369024320690A43616902430A4373
:1001C00003F40073E069216A1A430243A06A2368BA
:1001D0000A4302431A60A169606A2268090C01F0AF
:1001E0000401014351602168C86920F40060C861BE
:1001F0000021696001206870002032BD2DE9F843BC
:10020000074607F15006002530780C46914698467F
:10021000012808BF022000F096800120307000F015
:1002200025FD7178012918BF022554D1002C18BF73
:10023000B9F1000F00F08380032171700023736017
:100240003C63A7F83490A7F836900021B963BB87C8
:10025000F9877B643964BB68B3F5004F04D13B6810
:10026000196841F48041196039680B685C0603D451
:100270000B6843F040030B604446F968B1F5006F2A
:1002800079682CD1002918BFB9F1010F09D13B6B56
:1002900039681A88CA603B6B9A1C3A63F98E4A1E09
:1002A000FA86804606E03A6B1188C1603A6B901C72
:1002B00000F0C7F9F88E002835D0386882689107B9
:1002C000F1D400F0D3FCA0EB0800A04204D314F159
:1002D000010FEFD0032533E0002CEBD1FAE7002922
:1002E00018BFB9F1010F00F0C2F9804608E03A6B7F
:1002F00011780173386B411C3963F88E411EF98601
:10030000F88E80B1386882689107F0D400F0AEFCB6
:10031000A0EB0800A04203D314F1010FF0D0D9E7FD
:10032000002CEDD1D6E742462146384600F0F1FBDD
:1003300008B12020706000F08FF9706800B10125CD
:1003400000F09DF82846BDE8F2832DE9F843074602
:10035000002478680D469146984607F15006B0F59E
:10036000827F04BFB86800280BD14FF0040C86F8D8
:1003700001C0CDF800804B462A46384600F084F88C
:100380007BE03078012808BF022076D00120307051
:1003900000F06CFC7178012918BF02246AD1002D8D
:1003A00018BFB9F1000F64D004227270002171608F
:1003B000BD63A7F83C90A7F83E903963B986002248
:1003C000FA8639647A64B968B1F5004F04D13A68A5
:1003D000116821F48041116039680A68530600F001
:1003E00035F90546F968002926D108E0007BB96B8C
:1003F0000870B86B421CBA63F98F481EF887F88FF3
:1004000068B338688268D107F0D400F02FFC401B35
:10041000404504D318F1010FF1D003242AE0B8F1CC
:10042000000FECD1F9E7C168B86B0180B96B8A1C89
:10043000BA63F98F481EF887F88F80B138688168F1
:10044000CA07F0D400F012FC401B404503D318F15A
:10045000010FF1D0E1E7B8F1000FEDD1DDE72A4659
:100460004146384600F040FB08B1202070607068BB
:1004700000B1012400F003F82046BDE8F28301201A
:1004800070700021317070472DE9FC47074607F175
:100490005006012530788A4691464FF00008012821
:1004A00008BF022000F0CB801C46357000F0DEFB58
:1004B0007278012A23460AD07968B1F5827F02BF9B
:1004C000B9680029042A02D04FF00208B4E0BAF15A
:1004D000000F18BFB9F1000F00D00CB9A846ABE06F
:1004E00096F801C0BCF1040F1CBF4FF0050E86F852
:1004F00001E0C446C6F804C0C7F83890FC87BC8742
:10050000C7F830A0FC86BC86C7F84080C7F8448096
:1005100039680A68540600F099F8F9680A9CB1F540
:10052000006F796841D1002918BF012B09D13B6BBD
:1005300039681A88CA603A6B911C3963FA8E511E69
:10054000F9868146F88E002804BFF88F002866D00F
:100550003968886882070CD5F88E002818BF002DEE
:1005600007D0386B0288CA600025396B881C00F000
:1005700068F839688868C2070BD5F88F48B1C86831
:10058000B96B08800125B86B821CBA63F88F411ED5
:10059000F98700F06BFBA0EB0900A042D2D314F165
:1005A000010FCFD04FF0030846E0002918BF012B00
:1005B00000F05DF88146F88E002804BFF88F00280F
:1005C0002DD03968886882070CD5F88E002818BFAE
:1005D000002D07D0386B02780A730025396B481C50
:1005E00000F02FF839688868C2070BD5F88F48B13A
:1005F000C868B96B08700125BA6B501CB863F98FD5
:10060000481EF88700F032FBA0EB0900A04203D39C
:1006100014F1010FCFD0C5E7002CCCD1C2E74A4678
:100620002146384600F075FA20B120204FF001082D
:10063000706001E000F010F8FFF721FF4046BDE8D0
:10064000F6873863F98E481EF886704703D40A6827
:1006500042F040020A607047B86838B90021009142
:100660003968C868009089680091009A704709D17C
:100670003B6B39681A780A733A6B511C3963FA8EEE
:10068000511EF986704770B5064606F150050024E4
:100690002878012801D1022070BD01232B706878D1
:1006A000012818BF022439D109B1100001D1012459
:1006B00034E00320687000236B603163B286F286F9
:1006C0000021B16371643164B187F187B068B0F51E
:1006D000004F04D13168086840F480400860B06C75
:1006E0000FF231310164B06C0FF23121C163B06C93
:1006F0000FF23931C164B06C0365F38E3068316B31
:1007000000F10C02B06C00F02FFB10B100F067F8A4
:1007100004E000F06CF840F002004860002028700F
:10072000204670BDF8B506460024B06806F15005B5
:10073000002804BF7368B3F5827F08D104246C706D
:10074000304601B0BDE8F04013460A465FE02F781E
:10075000012F01D10220F2BD01272F706B78012BF0
:1007600018BF022437D109B1130001D1012432E0AE
:1007700004236B7000276F60B163B287F28700219A
:1007800034647164B486B0F5004FF18604D13168E9
:10079000086820F480400860F06C0FF28121016449
:1007A000F06C0FF2C111C163F06C0FF28121C164D2
:1007B000F06C0465F38F3068B26B00F10C01F06CE3
:1007C00000F0D2FA10B100F00AF804E000F00FF8DF
:1007D00040F001004860002028702046F2BD6868A3
:1007E00040F0100068600124012068707047306894
:1007F00001684A0603D4016841F040010160316894
:10080000486840F020004860316848687047F8B593
:10081000044604F1500600253078012801D1022059
:10082000F2BD012030707778012F09D06068B0F5F3
:10083000827F02BFA0680028042F01D0022568E053
:10084000002918BF002A01D0180001D1012560E05D
:10085000707804281CBF0527777000207060216322
:10086000A386E386A263A387E38720646064E06CC9
:100870007278042A07D10FF2A51101640FF2E50086
:10088000E16CC86306E00FF29D120FF241110264A1
:10089000E06CC163E06C0FF29511C164E06C05651A
:1008A000E38F2068A26B00F10C01E06C00F05CFAB1
:1008B000A8B92168486840F001004860A06C056450
:1008C000A06CC563A06CC564A06C0565E38E206850
:1008D000216B00F10C02A06C00F046FA38B1706890
:1008E00040F01000706001250120707011E0206858
:1008F00001684A0603D4016841F0400101602168A3
:10090000486840F0200048602068416841F00201DA
:100910004160002030702846F2BD000038B500F07C
:1009200040F800F039F811D400F03FF800F013F867
:1009300000F065F800F0FFF800F003F90020E08611
:10094000012184F85110606D00B13AE02046BDE805
:10095000324000F056BC2168486820F00200486030
:100960007047000038B500F01CF800F015F80ED400
:1009700000F01BF800F01FF86421204600F0B4F8E6
:1009800008B12021616500F03DF800B119E0204672
:10099000BDE8324000F03CBC2B6819680246C8052F
:1009A00070470546AC6B00F061B92168486820F0DB
:1009B00020004860704721684868800880004860CF
:1009C00070472046BDE8324000F040BC38B5FFF724
:1009D000E8FFFFF7E1FF0DD4FFF7E7FF00F00FF8A6
:1009E00000F0A9F8FFF7E7FF0021E18600F00AF820
:1009F00000B1E6E72046BDE8324000F028BC6421A3
:100A0000204686E00020E087012184F85110606DC7
:100A100070470000806B00F01BBC0000806B00F092
:100A200018BC0000806B00F015BC0000806B0268F1
:100A300051688908890051600121426D42F010021D
:100A4000426580F8511000F001BC00002168086880
:100A500020F04000086070472DE9F041069F0546F0
:100A60000E4690461C46296888683040B0420CBF4C
:100A700001210021414534D014F1010FF3D000F0E1
:100A8000F5F8C01BA04201D2002CECD129684868BF
:100A900020F0E00048606868B0F5827F0BD1A8685C
:100AA000B0F5004F18BFB0F5806F04D12968086811
:100AB00020F040000860A86AB0F5005F09D12868FE
:100AC000016821F4005101602968086840F4005071
:100AD000086005F1500001224270002101700320DE
:100AE00000E00020BDE8F0811CB504460B466068BC
:100AF000B0F5827F08D1A068B0F5004F18BFB0F5FF
:100B0000806F01D1FFF7A2FF0092802100222046D2
:100B100005E01CB500920B46044600228021FFF739
:100B20009BFF10B100F002F8032016BD606D40F08D
:100B300020006065704718B1606D40F0200060656E
:100B40007047A06838B9002100912168C8680090FA
:100B500089680091009A704781B0002000903C485D
:100B6000416841F480414160416801F48041009155
:100B70000021009B0091026842F0805202600068F0
:100B800000F080500090009801B070472DE9F041CE
:100B900086B004461421002201A800F079FB2368E6
:100BA0002C498B4246D1002000904FF0C0662A4865
:100BB0002A4D4169DFF8A88041F4805141614FF42A
:100BC0008067416901F4805100910021009B0091F0
:100BD000026842F0020202600222006800F0020095
:100BE0000090382000990292002103910190052184
:100BF00003220591049201A91A4800F053FBC5F89D
:100C000000806E600020A86000F017F808B100F0C6
:100C10001BFBE564AC6308F14800134D28606E606F
:100C20004021A960002000F008F808B100F00CFB9A
:100C3000A564AC6306B0BDE8F081E8602F6168612F
:100C4000A861E86128626862284600F015B80000D3
:100C50004038024000300140303802404803002054
:100C60001064024000040240A803002001484068CC
:100C7000704700BF3402002070B50446FFF7F6FF4E
:100C800006460CB9012070BD04F13405002028701F
:100C90000221697000F062F822681168C80708D55F
:100CA000FFF7E4FF801B0628F6D3202129620320EA
:100CB00052E01368DFF8B80261680340A0680B4394
:100CC000E168034320690B4361690343A0690B4357
:100CD000E16903430B43216A606A1943042803D185
:100CE000E06A0843216B0143116022685369606A1E
:100CF000DB08042840EAC3030AD1A66AE06A33434A
:100D000030B1A16989B9002E18BF022E1FD016D3A9
:100D10005361204600F048F9A96A3F228A40826068
:100D2000002028620121697070BDB1F5005F0AD111
:100D3000032EEDD8DFE806F00D0B0D03E8E7B0F168
:100D4000C07FE5D105E0022E03D9F61EE0D1C00137
:100D5000DED5402129620120687070BD21680868D5
:100D60004008400008607047F8B5044604F13407B5
:100D7000002538787E6A012801D10220F2BD0120C9
:100D80003870787801281DD14FF0020C87F801C027
:100D900000203862204600F0F7F8B86A3F2101FAD7
:100DA00000FCC6F808C02068016841F01601016027
:100DB000F86820B12168086840F00800086000F079
:100DC00005F801E03D7002252846F2BD216808685B
:100DD00040F00100086070472DE9FC41064606F12D
:100DE00034050020634A00904FF416506F6A116872
:100DF0003C68B1FBF0F8A86A082101FA00F004424F
:100E00000ED0306803685A070AD5036823F004033C
:100E10000360A86A8140B960296A41F00101296232
:100E2000A86A24FA00F2D1070BD5326851690A0684
:100E300007D5012101FA00F0B860286A40F00200ED
:100E400028620421A86A81400C4208D033681A68DD
:100E5000900704D5B960286A40F004002862102188
:100E6000A86A81400C421BD033681A68100717D556
:100E7000B96030680268510307D5006801030BD5DB
:100E8000696969B1304688470AE00168CA0503D438
:100E9000016821F008010160E96809B1304688471E
:100EA000A86A202181400C4241D032681068C306F4
:100EB0003DD5B9603068697805291ED1026822F0F5
:100EC00016020260316800F057F804BF6869002814
:100ED00004D03068016821F0080101603F22A86A4F
:100EE0008240BA600021297001226A70E9690029F4
:100EF0003AD03046BDE8FC41084701684A0307D5AF
:100F0000006801030FD4296989B1304688470EE093
:100F10000168CA0507D4016821F0100101600022B0
:100F20002A7001206870A96809B130468847286A8C
:100F3000D0B1296AC80711D5052169703168FFF75A
:100F40000EFF0098401C8045009003D33268116862
:100F5000C807F6D400222A7001216970A96919B165
:100F60003046BDE8FC410847BDE8F38100000000C1
:100F70003F8010F040020020486920F08000486166
:100F8000E86800287047000030B50468256825F43B
:100F90008025256063608068402802D1A260E160FE
:100FA00030BDA160E26030BD10B50146182208686E
:100FB00007A400F0FF03103BB3FBF2F2800AA35C2E
:100FC000CB658002042A28BF001D886510BD000083
:100FD00000061016000610162DE9F04186B000F04C
:100FE0005FFA00F0E2F800F007F900208C4F8D4C1A
:100FF0008D4D8E4EDFF838820590396841F08001C2
:101000003960386800F0800000F0C1F841F0040158
:101010003960386800F0040000F0B9F841F00801C8
:101020003960386800F008000590002005990590A7
:101030003A6842F002023A60386800F00200059017
:101040000020059A05900022396841F010013960AE
:101050004FF4E071386800F01000059005982046C4
:1010600000F002FA00227B21284600F0FDF901225F
:101070008021284600F0F8F900228021304600F057
:10108000F3F901220321404600F0EEF94FF4E0703D
:1010900000F083F8204600F005F9FB2200920121C0
:1010A00000F07DF8284600F0FDF8802000F075F88B
:1010B000304600F0F7F8032000900123002201934E
:1010C000029203926946404600F0ECF8002000903E
:1010D0000022396841F480013960386800F48000EA
:1010E000009000980021382000F00BFA382000F022
:1010F00027FA002200213B2000F003FA3B2000F0F9
:101100001FFA4C484C4901604FF48272082142603A
:10111000C16100234FF400720A218360C360036140
:1011200043618261036243628362C162FFF72AF80E
:1011300030B100F089F803E000F001FB00212170DC
:101140003E4C2078012818D16078002100F044FA44
:101150000020207021780329EED020780428EFD1D8
:101160006178062000F024FA0A2000F047FB61783D
:10117000982000F01DFA0021217020780228E9D182
:101180006078002100F068FA00202070E5E7059003
:101190000020059A0590396870470121009001915F
:1011A0000022029203926946704700B591B0302147
:1011B000002205A800F06CF800F01EF802220121C0
:1011C000059208911022002109920B9105A800F0C8
:1011D00029FB08B100F038F80F2000900022002110
:1011E0000192029103920491684600F07EFC08B1DE
:1011F00000F02AF811B000BD14210022684600F06A
:1012000047B80C4A904202D10D4801210170704745
:10121000084A904202D10B4801210170704700003A
:101220003038024000080240000C02400004024036
:10123000001002400804002000300140600400203B
:10124000620400206304002072B6FEE77047704716
:1012500070477047704730B501688468421841682C
:1012600002EB5103C90703D54C4401E0491C08D1E6
:101270009A4218BF12F9011B01D10C3030BD12F88F
:10128000015B002904F8015BF0D4491EF7D5EFE7B4
:101290004018491C1CBFB1F1010100F8012DF9D122
:1012A000704700002DE9F84F0027714EDFF8C48128
:1012B0004FF00F0902460B462EE06F4DAA4214BFB5
:1012C0004FF0090E4FF0080E0EFA01F141EA040E3C
:1012D0006A4941F82CE0C54331685C682940E40361
:1012E00048BF0143316071685C682940A40348BF6E
:1012F00001437160B1685C682940E40248BF014362
:10130000B160F16805EA010C5968890248BF40EAFA
:101310000C0CC6F80CC07F1C186830FA07F100F0FE
:10132000A1800121B9400840F5D04FEA470C0324C1
:1013300004FA0CF46FEA040E5C68012C18BF022C4E
:1013400003D0112C18BF122C10D19468DD680EEA5E
:10135000040405FA0CF52C439460546824EA010156
:101360005C68C4F30014BC4021435160D4689968A0
:101370000EEA040401FA0CF10C43D460B9005C6875
:10138000022C18BF122C11D1FC0802EB840401F0CE
:101390001C05D4F820B009FA05FA2BEA0A0BD3F899
:1013A00010A00AFA05F545EA0B05256214680EEA55
:1013B00004051C7904F0030404FA0CF444EA050C57
:1013C000C2F800C05C68E400A5D54FF0000ECDF86F
:1013D00000E04FEA970CD8F8004044F48044C8F885
:1013E000004001F00C01D8F800E00EF4804ECDF87A
:1013F00000E009FA01F5009CDFF880E05EF82C407F
:10140000AC431F4DAA4208BF4FF0000E29D01D4D1E
:10141000AA4208BF4FF0010E23D01B4DAA4208BFBD
:101420004FF0020E1DD0194DAA4208BF4FF0030E17
:1014300017D0174DAA4208BF4FF0040E11D0154D1A
:10144000AA4208BF4FF0050E0BD0134DAA4208BFA9
:101450004FF0060E05D0114DAA427FF42EAF4FF08B
:10146000070E31E7BDE8F18F02B9090481617047C9
:10147000003C01404438024000200240083801404E
:10148000000002400004024000080240000C02403C
:10149000001002400014024000180240001C0240EC
:1014A00080B50B48016841F400710160026842F4A4
:1014B00080620260016841F480710160032000F0E5
:1014C00016F80F2000F0D8FBFFF746FB002002BD06
:1014D000003C02400A01010002D4274B5A547047D5
:1014E000264801F00F01014401F8042C70472449FB
:1014F0000A6860F30A2240F2FA5060F31F420A6061
:10150000704770B51E4C2368C3F302230124C3F156
:101510000705052D2FBF0F26C3F1070604FA06F6AF
:10152000761E1D1D072D34BF0023DB1E3140994060
:1015300004FA03F3BDE870405B1E1A401143C9E78B
:10154000010007D4012200F01F010E4B8A40400920
:1015500043F820207047401EB0F1807F01D3012066
:10156000704709494860F0220848027000238B60E8
:1015700007220A600020704700E400E018ED00E058
:101580000CED00E000E100E010E000E023ED00E001
:101590008D4B33F8101003EB8003002205E08A4BDB
:1015A00033F8101003EB800301221869FFF75CBFCA
:1015B00011B50C46854981B00C7000F075F800F04B
:1015C00071F800F0B9F8012201A98148FFF75BF832
:1015D00000F0B2F82046ACE0F8B57C4E04460D466B
:1015E000347000F083F800F05FF821469820FFF790
:1015F000DFFF00F059F82946204600F059F800F0C6
:1016000053F800F076F800F0EFF800F06FF8714F43
:101610000222290C280A3A707970B870FD704FF4D4
:10162000807207F58271381D00F046FB3078FFF7B5
:10163000B6FF00F0D9F800F035F800F035F84FF4B7
:10164000827239466248FFF71EF800F02DF82046F6
:10165000BDE8F240A3E700007CB55C4D044600BF46
:1016600064A02C700E0C026800928DF803100A0A18
:101670008DF802208DF8016000F014F800F014F8E5
:10168000534E042269463046FEF7FDFF4FF4807248
:10169000291D3046FFF746F8322000F0AFF800F081
:1016A000A6F873BD204673E70A2000F0A7B8000033
:1016B00038B504460D4600F019F8FFF7F5FF00BFF6
:1016C0004DA0016800912B0C290A8DF801308DF88E
:1016D00002108DF80350FFF7E5FFFFF7E5FF042246
:1016E00069463B48FEF7CFFF0A2068E02146062006
:1016F0005EE71CB505218DF801100020FFF748FFBB
:1017000000F01AF8324C00F069F82046FEF776FD3A
:101710000020FFF73DFF4FF0FF33012269462046CE
:10172000FEF713FE9DF80010C807ECD400F004F893
:101730000020FFF734FF13BD052000F05FB838B577
:101740000446FFF725FF00F04FF866208DF80200F1
:101750004FF0FF331E4D01220DF102012846FEF726
:101760004DFD00F041F800F042F800F03DF8FFF7C1
:1017700099FF00F039F899208DF8010000F02EF85B
:101780002846FEF73BFD00F02FF800F030F800F09F
:101790002BF8FFF787FF00F027F89F208DF8000057
:1017A0004FF0FF33012269462846FEF727FD4FF030
:1017B000FF33032208492846FEF7C7FD142000F036
:1017C0001DF800F014F831BD04020020440200208E
:1017D0000804002000000020480200204FF0FF33E2
:1017E00001220DF101017047142000F007B82046D6
:1017F000D5E60000030000002000000031B5FFF72F
:1018000035FA009D15F1010F044602D0044908780D
:101810004519FFF72BFA001BA842FAD331BD00BFD0
:10182000340200202DE9FC47040016D02078DFF8B0
:101830001874C10713D5B86800F00C00042807D04D
:10184000B86800F00C00082842D1786841023FD502
:101850003868810303D56068002800F03C81207857
:10186000DFF8F493810719D5B86810F00C0F07D092
:10187000B86800F00C00082846D17868410243D4CB
:101880003868810703D5E068012840F02481396871
:10189000206921F0F80141EAC00139602178DFF8C0
:1018A000BC83080766D56069DFF8B413002853D0FD
:1018B00001220A60FFF7DAF90546D8F8040081072B
:1018C00058D4FFF7D3F9401B0228F6D9032005E1CD
:1018D0006168B970606858B1FFF7C8F905463968A2
:1018E0008803BCD4FFF7C2F9401B6528F7D3EDE7A6
:1018F000FFF7BCF9054639688803B0D5FFF7B6F99C
:10190000401B6528F7D3E1E7E068B0B10122C9F8D0
:101910000020FFF7ABF905463968880705D4FFF7C3
:10192000A5F9401B0228F7D9D0E73868216920F0D3
:10193000F80040EAC1003860B0E70022C9F8002092
:10194000FFF794F9054638688107A7D5FFF78EF9A8
:10195000401B0228F7D9B9E70860FFF787F9054669
:10196000D8F80400810705D5FFF780F9401B02284D
:10197000F6D9ABE72078410751D5386C0025C10076
:101980000BD4002000900125396C41F0805139645E
:10199000386C00F0805000900098DFF8C862306822
:1019A00040F4807030603168CA0510D4306840F46B
:1019B00080703060FFF75AF982463068C10506D45E
:1019C000FFF754F9A0EB0A000228F6D97EE7A168D8
:1019D00088F8001041F28936A06868B1FFF746F92F
:1019E0008246D8F80010880714D4FFF73FF9A0EB1F
:1019F0000A00B042F5D369E7FFF738F98246D8F814
:101A00000000810706D5FFF731F9A0EB0A00B042CC
:101A1000F5D35BE71DB1386C20F080503864A069C5
:101A200000285AD0B96801F00C01082937D00228E3
:101A300029D100F055F805463868810105D5FFF732
:101A400015F9401B6528F7D340E7E269206A616A0F
:101A50000243A06A400842EA8112401E42EA004264
:101A6000E06A42EA00627A600121C9F86010FFF77B
:101A7000FDF80446386881012FD4FFF7F7F8001B02
:101A80006528F7D322E700F02BF804463868810177
:101A900023D5FFF7EBF8001B6528F7D316E70128DD
:101AA00019D07868E16900F480028A4202BF00F030
:101AB0003F02216A8A420ED1636AC0F388119942BB
:101AC00002BF00F44032A16A8A4202BF00F0706097
:101AD000E16A884201D0012000E00020BDE8F687DD
:101AE0000020C9F86000FFF7C1B82DE9F0410400FB
:101AF0000F4652D05C4E306800F00F00B84202D260
:101B000000F071F849D121684F4D880712D5490777
:101B100003D5A86840F4E050A8602178080703D5F1
:101B2000A96841F46041A960A968A06821F0F001AA
:101B30000143A9602178C80727D56068012802D130
:101B400029688A0303E0022803D129688A0103D4A3
:101B500023E02B68990720D5AA68920840EA820002
:101B6000A860FFF783F88046A968606801F00C015F
:101B7000B1EB800F09D0FFF779F8A0EB080041F234
:101B800089318842F0D303202BE0306800F00F0049
:101B9000874204D200F027F801D0012021E021780B
:101BA000480705D5A968E06821F4E0510143A96020
:101BB00021780A0706D5A868216920F4604040EA28
:101BC000C100A86000F015F8AA682849C2F3031202
:101BD0008B5C1E49D84008601E48006800F04CF835
:101BE0000020BDE8F0813770316801F00F01B94283
:101BF000704730B51E4C606800F00C00042802D01D
:101C0000082802D01DE01B4830BD2268216800234F
:101C1000480202F03F0204D525681648C5F3881132
:101C200003E021680A48C1F38811A0FB010100F01C
:101C30004FF82168C1F30141491C4900B0FBF1F0A4
:101C400030BD034830BD0000003802404002002093
:101C50000024F4003C02002000004742703802409B
:101C6000800E474200700040003C0240201E0008E9
:101C70000438024040787D0138B50D4D0D4A297871
:101C800004464FF47A731068B3FBF1F1B0FBF1F046
:101C9000FFF761FC50B9102C08D2002221464FF00A
:101CA000FF30FFF72EFCAC60002032BD012032BDBA
:101CB00034020020400200204AB1000011F8013B2C
:101CC000521E00F8013B1CBF11F8013BF8E77047BA
:101CD000D3BBD9B1B2F5803F5BD2022A1ED98C4664
:101CE000B1FBF2F102FB11C31B0443EA1043B3FB47
:101CF000F2FC02FB1C3380B240EA0343B3FBF2F078
:101D000002FB103240EA0C4000237047022A05D93A
:101D10008446B0FBF2F002FB10C270474AB105D115
:101D200000F0010249085FEA3000704700220023FA
:101D3000704700F051B80B000200002100207047EE
:101D4000F7D3002200237047904271EB030CF2D3CB
:101D500070B5B1FA81F4B3FA83F52C1BA340C4F13A
:101D6000200532FA05F63343A2405FF00046E64014
:101D700002E05B085FEA3202841A71EB030524BFBC
:101D8000204629467641F4D302000B0030000021A2
:101D900070BD70B5B1FA81F4B2FA82F5C4F12004D5
:101DA0006419B4F12006DAD3B2405FF00044F44085
:101DB000002502E052085FEA3303C61A71EB020EF7
:101DC00024BF3046714664416D41F3D302000B00DD
:101DD0002000290070BD00007047000010B50C49BC
:101DE0000C4C086840F00100086000238B600A6812
:101DF000094802400A604C6000220B68074823F43F
:101E000080230B60CA604FF00061016010BD0000CC
:101E10000038024010300024FFFFF6FE08ED00E01D
:101E2000000000000000000001020304060708098A
:101E300030B4002412E050F8043BDA0744BF4B44AE
:101E40005B1E091F042943F8044BFAD21A468D077A
:101E500044BF1C80921CCB0748BF147050F8041B71
:101E60000029E8D130BC704710B5034A7A440832E3
:101E7000024C7C44A41D03E05400000070000000EC
:101E800004E01168101D114488470246A242F8D1AF
:101E900010BD0000FEE7FEE7FEE7FEE7FEE7704745
:101EA0007047704700F00AB80248FEF795BF024835
:101EB000FEF792BF48030020A8030020024A5168A1
:101EC00010784118516070473402002065FFFFFF11
:101ED0002002000044020020000000007BF3FFFF0E
:101EE000B8010000880200000000002000F00DF89A
:101EF000002801D0FFF7B8FFAFF300800020AFF358
:101F00000080FFF769F800F002F80120704700F048
:101F100001B800000746384600F002F8FBE7000071
:101F200080B5AFF30080024A11001820ABBEFBE77A
:101F3000260002000548014603B4684680F309887C
:101F4000AFF30080AFF30080FFF7D0FFA5EDF5FE03
:101F50000148804701480047DD1D0008351F000883
:101F6000FFF7FEBFFFF7FEBFFFF7FEBFFFF7FEBFA5
:101F7000FFF7FEBFFFF7FEBFFFF7FEBFFFF7FEBF95
:101F8000FFF7FEBFFFF7FEBFFFF7FEBFFFF7FEBF85
:101F9000FFF7FEBFFFF7FEBFFFF7FEBFFFF7FEBF75
:101FA000FFF7FEBFFFF7FEBFFFF7FEBFFFF7FEBF65
:101FB000FFF7FEBFFFF7FEBFFFF7FEBFFFF7FEBF55
:101FC000FFF7FEBFFFF7FEBFFFF7FEBFFFF7FEBF45
:101FD000FFF7FEBFFFF7FEBFFFF7FEBFFFF7FEBF35
:101FE000FFF7FEBFFFF7FEBFFFF7FEBFFFF7FEBF25
:101FF000FFF7FEBFFFF7FEBFFFF7FEBFFFF7FEBF15
:10200000FFF7FEBFFFF7FEBFFFF7FEBFFFF7FEBF04
:10201000FFF7FEBFFFF7FEBFFFF7FEBFFFF7FEBFF4
:10202000FFF7FEBFFFF7FEBFFFF7FEBFFFF7FEBFE4
:10203000FFF7FEBFFFF7FEBFFFF7FEBFFFF7FEBFD4
:10204000FFF7FEBFFFF7FEBFFFF7FEBFFFF7FEBFC4
:10205000FFF7FEBFFFF7FEBFFFF7FEBFFFF7FEBFB4
:10206000FFF7FEBFFFF7FEBFFFF7FEBFFFF7FEBFA4
:10207000FFF7FEBFFFF7FEBFFFF7FEBFFFF7FEBF94
:10208000FFF7FEBFFFF7FEBFFFF7FEBFFFF7FEBF84
:10209000FFF7FEBFFFF7FEBF81008100FA007E015F
:1020A00002030405060708090A0B0C0D0E0F101198
:1020B00012131415161718191A1B1C1D1E1F202188
:1020C00022232425262728292A2B2C2D2E2F303178
:1020D00032333435363738393A3B3C3D3E3F404168
:1020E00042434445464748494A4B4C4D4E4F505158
:1020F00052535455565758595A5B5C5D5E5F606148
:1021000062636465666768696A6B6C6D6E6F707137
:1021100072737475767778797A7B7C7D7E7F7E802A
:102120008182838485868788898A8B8C8D8E8F9027
:102130009192939495969798999A9B9C9D9E9FA017
:10214000A1A2A3A4A5A6A7A8A9AAABACADAEAFB007
:10215000B1B2B3B4B5B6B7B8B9BABBBCBDBEBFC0F7
:10216000C1C2C3C4C5C6C7C8C9CACBCCCDCECFD0E7
:10217000D1D2D3D4D5D6D7D8D9DADBDCDDDEDFE0D7
:10218000E1E2E3E4E5E6E7E8E9EAEBECEDEEEFF0C7
:10219000F1F2F3F4F5F6F7F8F9FAFBFCFDFE32FF85
:1021A0000B800040002000100008008000020001A9
:1021B00000000C0240000C0240000C0240000C0227
:1021C00040000C024000040240000C0240000C02DF
:0C21D0004001F9000010FC000224F400A3
:0400000508001F359B
:00000001FF
