:020000040800F2
:100000008805002059200008991F00089B1F000840
:100010009D1F00089F1F0008A11F0008000000008E
:10002000000000000000000000000000A31F000806
:10003000A51F000800000000A71F0008A91F000856
:100040008120000885200008892000088D200008F4
:100050009120000895200008992000089D200008A4
:10006000A1200008A5200008A9200008AD20000854
:10007000B1200008B5200008B9200008BD20000804
:10008000C1200008C5200008C9200008CD200008B4
:10009000D1200008D5200008D9200008DD20000864
:1000A000E1200008E5200008E9200008ED20000814
:1000B000F1200008F5200008F9200008FD200008C4
:1000C0000121000805210008092100080D21000870
:1000D0001121000815210008192100081D21000820
:1000E0002121000825210008292100082D210008D0
:1000F0003121000835210008392100083D21000880
:100100004121000845210008492100084D2100082F
:100110005121000855210008592100085D210008DF
:10012000AD1F00086121000865210008B31F000809
:10013000692100086D21000871210008752100085F
:10014000792100087D21000881210008852100080F
:10015000892100088D2100089121000895210008BF
:10016000992100089D210008A1210008A52100086F
:10017000A9210008AD210008B121000800000000FD
:10018000B521000838B5040001D1012032BD00209E
:10019000A06204F15005687820B900222A70204638
:1001A00000F086FC0221697000F0D8FB6268A0684C
:1001B000E168A369024320690A43616902430A4373
:1001C00003F40073E069216A1A430243A06A2368BA
:1001D0000A4302431A60A169606A2268090C01F0AF
:1001E0000401014351602168C86920F40060C861BE
:1001F0000021696001206870002032BD2DE9F843BC
:10020000074607F15006002530780C46914698467F
:10021000012808BF022000F096800120307000F015
:10022000EDFC7178012918BF022554D1002C18BFAC
:10023000B9F1000F00F08380032171700023736017
:100240003C63A7F83490A7F836900021B963BB87C8
:10025000F9877B643964BB68B3F5004F04D13B6810
:10026000196841F48041196039680B685C0603D451
:100270000B6843F040030B604446F968B1F5006F2A
:1002800079682CD1002918BFB9F1010F09D13B6B56
:1002900039681A88CA603B6B9A1C3A63F98E4A1E09
:1002A000FA86804606E03A6B1188C1603A6B901C72
:1002B00000F0C7F9F88E002835D0386882689107B9
:1002C000F1D400F09BFCA0EB0800A04204D314F191
:1002D000010FEFD0032533E0002CEBD1FAE7002922
:1002E00018BFB9F1010F00F0C2F9804608E03A6B7F
:1002F00011780173386B411C3963F88E411EF98601
:10030000F88E80B1386882689107F0D400F076FCEE
:10031000A0EB0800A04203D314F1010FF0D0D9E7FD
:10032000002CEDD1D6E742462146384600F079FB55
:1003300008B12020706000F08FF9706800B10125CD
:1003400000F09DF82846BDE8F2832DE9F843074602
:10035000002478680D469146984607F15006B0F59E
:10036000827F04BFB86800280BD14FF0040C86F8D8
:1003700001C0CDF800804B462A46384600F084F88C
:100380007BE03078012808BF022076D00120307051
:1003900000F034FC7178012918BF02246AD1002DC5
:1003A00018BFB9F1000F64D004227270002171608F
:1003B000BD63A7F83C90A7F83E903963B986002248
:1003C000FA8639647A64B968B1F5004F04D13A68A5
:1003D000116821F48041116039680A68530600F001
:1003E00035F90546F968002926D108E0007BB96B8C
:1003F0000870B86B421CBA63F98F481EF887F88FF3
:1004000068B338688268D107F0D400F0F7FB401B6E
:10041000404504D318F1010FF1D003242AE0B8F1CC
:10042000000FECD1F9E7C168B86B0180B96B8A1C89
:10043000BA63F98F481EF887F88F80B138688168F1
:10044000CA07F0D400F0DAFB401B404503D318F193
:10045000010FF1D0E1E7B8F1000FEDD1DDE72A4659
:100460004146384600F0C8FA08B120207060706834
:1004700000B1012400F003F82046BDE8F28301201A
:1004800070700021317070472DE9FC47074607F175
:100490005006012530788A4691464FF00008012821
:1004A00008BF022000F0CB801C46357000F0A6FB90
:1004B0007278012A23460AD07968B1F5827F02BF9B
:1004C000B9680029042A02D04FF00208B4E0BAF15A
:1004D000000F18BFB9F1000F00D00CB9A846ABE06F
:1004E00096F801C0BCF1040F1CBF4FF0050E86F852
:1004F00001E0C446C6F804C0C7F83890FC87BC8742
:10050000C7F830A0FC86BC86C7F84080C7F8448096
:1005100039680A68540600F099F8F9680A9CB1F540
:10052000006F796841D1002918BF012B09D13B6BBD
:1005300039681A88CA603A6B911C3963FA8E511E69
:10054000F9868146F88E002804BFF88F002866D00F
:100550003968886882070CD5F88E002818BF002DEE
:1005600007D0386B0288CA600025396B881C00F000
:1005700068F839688868C2070BD5F88F48B1C86831
:10058000B96B08800125B86B821CBA63F88F411ED5
:10059000F98700F033FBA0EB0900A042D2D314F19D
:1005A000010FCFD04FF0030846E0002918BF012B00
:1005B00000F05DF88146F88E002804BFF88F00280F
:1005C0002DD03968886882070CD5F88E002818BFAE
:1005D000002D07D0386B02780A730025396B481C50
:1005E00000F02FF839688868C2070BD5F88F48B13A
:1005F000C868B96B08700125BA6B501CB863F98FD5
:10060000481EF88700F0FAFAA0EB0900A04203D3D5
:1006100014F1010FCFD0C5E7002CCCD1C2E74A4678
:100620002146384600F0FDF920B120204FF00108A6
:10063000706001E000F010F8FFF721FF4046BDE8D0
:10064000F6873863F98E481EF886704703D40A6827
:1006500042F040020A607047B86838B90021009142
:100660003968C868009089680091009A704709D17C
:100670003B6B39681A780A733A6B511C3963FA8EEE
:10068000511EF9867047F8B506460024B06806F199
:100690005005002804BF7368B3F5827F08D1042495
:1006A0006C70304601B0BDE8F04013460A465FE08A
:1006B0002F78012F01D10220F2BD01272F706B7816
:1006C000012B18BF022437D109B1130001D1012435
:1006D00032E004236B7000276F60B163B287F2874A
:1006E000002134647164B486B0F5004FF18604D102
:1006F0003168086820F480400860F06C0FF22D210A
:100700000164F06C0FF27511C163F06C0FF22D21D2
:10071000C164F06C0465F38F3068B26B00F10C01BA
:10072000F06C00F0E9FA10B100F00AF804E000F013
:100730000FF840F001004860002028702046F2BD0C
:10074000686840F0100068600124012068707047FC
:10075000306801684A0603D4016841F04001016035
:100760003168486840F02000486031684868704748
:10077000F8B5044604F1500600253078012801D16F
:100780000220F2BD012030707778012F09D0606817
:10079000B0F5827F02BFA0680028042F01D0022597
:1007A00068E0002918BF002A01D0180001D10125F6
:1007B00060E0707804281CBF052777700020706007
:1007C0002163A386E386A263A387E3872064606432
:1007D000E06C7278042A07D10FF2511101640FF214
:1007E0009D00E16CC86306E00FF249120FF2F501BB
:1007F0000264E06CC163E06C0FF24111C164E06C13
:100800000565E38F2068A26B00F10C01E06C00F03D
:1008100073FAA8B92168486840F001004860A06CEC
:100820000564A06CC563A06CC564A06C0565E38E0F
:100830002068216B00F10C02A06C00F05DFA38B169
:10084000706840F01000706001250120707011E0A8
:10085000206801684A0603D4016841F04001016044
:100860002168486840F0200048602068416841F0F5
:1008700002014160002030702846F2BD38B500F01A
:100880001CF800F015F80ED400F01BF800F01FF86B
:100890006421204600F0B0F808B12021616500F025
:1008A0003DF800B119E02046BDE8324000F0DCBC64
:1008B0002B6819680246C80570470546AC6B00F006
:1008C0009DB92168486820F0200048607047216881
:1008D000486880088000486070472046BDE8324084
:1008E00000F0C5BC38B5FFF7E8FFFFF7E1FF0DD416
:1008F000FFF7E7FF00F00FF800F0A5F8FFF7E7FFBC
:100900000021E18600F00AF800B1E6E72046BDE8E4
:10091000324000F0ADBC6421204682E00020E08738
:10092000012184F85110606D70470000806B00F069
:10093000A0BC0000806B00F09DBC0000806B0268D2
:1009400051688908890051600121426D42F010020E
:10095000426580F8511000F08ABC000021680868E8
:1009600020F04000086070472DE9F041069F0546E1
:100970000E4690461C46296888683040B0420CBF3D
:1009800001210021414534D014F1010FF3D000F0D2
:1009900035F9C01BA04201D2002CECD1296848686F
:1009A00020F0E00048606868B0F5827F0BD1A8684D
:1009B000B0F5004F18BFB0F5806F04D12968086802
:1009C00020F040000860A86AB0F5005F09D12868EF
:1009D000016821F4005101602968086840F4005062
:1009E000086005F1500001224270002101700320CF
:1009F00000E00020BDE8F0811CB504460B466068AD
:100A0000B0F5827F08D1A068B0F5004F18BFB0F5EF
:100A1000806F01D1FFF7A2FF0092802100222046C3
:100A200005E01CB500920B46044600228021FFF72A
:100A30009BFF10B100F002F8032016BD606D40F07E
:100A400020006065704718B1606D40F0200060655F
:100A500070470EE002684368024408305FEAC37CD6
:100A600044BF4B445B1E52F804CB43F804CB091F30
:100A7000F9D150F8041B0029ECD1704781B0002057
:100A800000905548416841F480414160416801F45B
:100A9000804100910021009B0091026842F0805249
:100AA0000260006800F080500090009801B070472C
:100AB0002DE9F04186B000F088F8236847498B4261
:100AC00043D1002000904FF0C0664548454D416934
:100AD000DFF8148141F4805141614FF4806741692E
:100AE00001F4805100F06BF842F002020260022231
:100AF000006800F002000090382000990292002166
:100B000003910190052103220591049201A9374820
:100B100000F0B2FBC5F800806E600020A86000F015
:100B200017F808B100F0A1FBE564AC6308F14800D8
:100B30002F4D28606E604021A960002000F008F869
:100B400008B100F092FBA564AC6306B0BDE8F0818B
:100B5000E8602F616861A861E861286268622846E0
:100B600000F052B810B586B000F02FF82368214984
:100B70008B4222D1002000901948016941F40021E4
:100B80000161016901F4002100F019F842F004024A
:100B900002600222006800F0040000904FF4406000
:100BA00000990292012103910190082103220591ED
:100BB000049201A9104800F05FFB06B010BD00913F
:100BC0000021009B00910268704704461421002216
:100BD00001A800F05BBC000040380240003001403A
:100BE000303802401000002010640240000402402F
:100BF00070000020004C004000080240014840689E
:100C0000704700BF0000002070B50446FFF7F6FFF4
:100C100006460CB9012070BD04F13405002028708F
:100C20000221697000F062F822681168C80708D5CF
:100C3000FFF7E4FF801B0628F6D32021296203205A
:100C400052E01368DFF8B80261680340A0680B4304
:100C5000E168034320690B4361690343A0690B43C7
:100C6000E16903430B43216A606A1943042803D1F5
:100C7000E06A0843216B0143116022685369606A8E
:100C8000DB08042840EAC3030AD1A66AE06A3343BA
:100C900030B1A16989B9002E18BF022E1FD016D31A
:100CA0005361204600F048F9A96A3F228A408260D9
:100CB000002028620121697070BDB1F5005F0AD182
:100CC000032EEDD8DFE806F00D0B0D03E8E7B0F1D9
:100CD000C07FE5D105E0022E03D9F61EE0D1C001A8
:100CE000DED5402129620120687070BD2168086846
:100CF0004008400008607047F8B5044604F1340726
:100D0000002538787E6A012801D10220F2BD012039
:100D10003870787801281DD14FF0020C87F801C097
:100D200000203862204600F0F7F8B86A3F2101FA47
:100D300000FCC6F808C02068016841F01601016097
:100D4000F86820B12168086840F00800086000F0E9
:100D500005F801E03D7002252846F2BD21680868CB
:100D600040F00100086070472DE9FC41064606F19D
:100D700034050020634A00904FF416506F6A1168E2
:100D80003C68B1FBF0F8A86A082101FA00F00442BF
:100D90000ED0306803685A070AD5036823F00403AD
:100DA0000360A86A8140B960296A41F001012962A3
:100DB000A86A24FA00F2D1070BD5326851690A06F5
:100DC00007D5012101FA00F0B860286A40F002005E
:100DD00028620421A86A81400C4208D033681A684E
:100DE000900704D5B960286A40F0040028621021F9
:100DF000A86A81400C421BD033681A68100717D5C7
:100E0000B96030680268510307D5006801030BD54B
:100E1000696969B1304688470AE00168CA0503D4A8
:100E2000016821F008010160E96809B1304688478E
:100E3000A86A202181400C4241D032681068C30664
:100E40003DD5B9603068697805291ED1026822F065
:100E500016020260316800F057F804BF6869002884
:100E600004D03068016821F0080101603F22A86ABF
:100E70008240BA600021297001226A70E969002964
:100E80003AD03046BDE8FC41084701684A0307D51F
:100E9000006801030FD4296989B1304688470EE004
:100EA0000168CA0507D4016821F010010160002221
:100EB0002A7001206870A96809B130468847286AFD
:100EC000D0B1296AC80711D5052169703168FFF7CB
:100ED0000EFF0098401C8045009003D332681168D3
:100EE000C807F6D400222A7001216970A96919B1D6
:100EF0003046BDE8FC410847BDE8F3810000000032
:100F00003F8010F00C000020486920F0800048610C
:100F1000E86800287047000030B50468256825F4AB
:100F20008025256063608068402802D1A260E1606E
:100F300030BDA160E26030BD10B5014618220868DE
:100F400007A400F0FF03103BB3FBF2F2800AA35C9E
:100F5000CB658002042A28BF001D886510BD0000F3
:100F600000061016000610162DE9F04786B000F0B6
:100F700097FA00F026F900F05EF90020B04EDFF895
:100F8000C492B14DDFF8C4A2B14FDFF8C88205901A
:100F90004FF40074316841F010013160306800F0A6
:100FA000100000F000F942F080023260306800F07A
:100FB000800000F0F2F841F004013160306800F088
:100FC000040000F0F0F842F001023260306800F0F6
:100FD000010000F0E2F841F008013160306800F0F3
:100FE000080005900020059905901B21326842F009
:100FF000020232600122306800F00200059005987C
:10100000484600F021FA00224021484600F01CFA30
:1010100000224FF4E071284600F016FA00224FF447
:10102000A061504600F010FA00227B21384600F003
:101030000BFA01228021384600F006FA00228021B6
:10104000404600F001FA0420009000220192029232
:101050006946484600F010F95B2200F0AAF84846BD
:1010600000F00AF94FF4E070002100900122029193
:10107000039101926946284600F0FEF8009402228E
:1010800001920021029103220491039269462846AD
:1010900000F0F2F84FF4A0600121009000F08BF80E
:1010A000504600F0E9F8FB2200F083F8384600F0E3
:1010B000E3F880200121009000F07DF8404600F028
:1010C000DBF80020009000223168634D41F480017C
:1010D00031600021306800F48000009000983820D2
:1010E00000F00FFA382000F02BFA002200213B20FC
:1010F00000F007FA3B2000F023FA4FF482715748C2
:1011000041600022012105608260C260026141618C
:101110008461082200230A21C26103624362836260
:10112000C162FFF72FF808B100F09FF84C4F4D480F
:1011300078604FF4E1310020F8603861B9600C202C
:101140000021B8617961F9613962381D00F020FA37
:1011500008B100F08AF800F010FB16E0022806D172
:101160004FF48071504600F073F90020387004216C
:10117000484600F063F908B900F04CFB38780328C2
:1011800003D100F0CDFA00213970286878643878EE
:101190000128E3D100F0F1FAE7E705900020059A75
:1011A00005903168704705900020059905903268D8
:1011B0007047009201210191002202920392694638
:1011C000704700B591B03021002205A800F05EF90B
:1011D00000F031F810210991012200210C910892B0
:1011E000C3210E91022005900B900D220F90042137
:1011F0000D92109105A800F02FFB08B100F035F812
:1012000000210222029101920F204FF480510090A0
:101210004FF4A052049103920321684600F07FFC32
:1012200008B100F022F84FF0E0620021012000F048
:10123000FAFC11B000BD14210022684600F026B966
:101240003038024000100240000802400000024016
:10125000000C02400004024000300140D000002099
:1012600028010020004C0040704772B6FEE770472E
:1012700070477047704700002DE9F84F0027774E00
:10128000DFF8DC814FF00F0902460B462EE0754D6A
:10129000AA4214BF4FF0090E4FF0080E0EFA01F1EA
:1012A00041EA040E704941F82CE0C54331685C689E
:1012B0002940E40348BF0143316071685C682940FC
:1012C000A40348BF01437160B1685C682940E4022F
:1012D00048BF0143B160F16805EA010C5968890211
:1012E00048BF40EA0C0CC6F80CC07F1C186830FAE6
:1012F00007F100F0A1800121B9400840F5D04FEA84
:10130000470C032404FA0CF46FEA040E5C68012C09
:1013100018BF022C03D0112C18BF122C10D19468C6
:10132000DD680EEA040405FA0CF52C439460546859
:1013300024EA01015C68C4F30014BC4021435160FD
:10134000D46899680EEA040401FA0CF10C43D460E5
:10135000B9005C68022C18BF122C11D1FC0802EBFA
:10136000840401F01C05D4F820B009FA05FA2BEA30
:101370000A0BD3F810A00AFA05F545EA0B05256219
:1013800014680EEA04051C7904F0030404FA0CF452
:1013900044EA050CC2F800C05C68E400A5D54FF033
:1013A000000ECDF800E04FEA970CD8F8004044F466
:1013B0008044C8F8004001F00C01D8F800E00EF4B9
:1013C000804ECDF800E009FA01F5009CDFF898E0C6
:1013D0005EF82C40AC43254DAA4208BF4FF0000EEA
:1013E00029D0234DAA4208BF4FF0010E23D0214D32
:1013F000AA4208BF4FF0020E1DD01F4DAA4208BFDF
:101400004FF0030E17D01D4DAA4208BF4FF0040E37
:1014100011D01B4DAA4208BF4FF0050E0BD0194D3D
:10142000AA4208BF4FF0060E05D0174DAA427FF41E
:101430002EAF4FF0070E31E7BDE8F18F006908408D
:1014400018BF0120C0B2704702B90904816170471A
:1014500042690A4218BF090481617047003C01409B
:101460004438024000200240083801400000024099
:101470000004024000080240000C0240001002403C
:101480000014024000180240001C02404018491C91
:101490001CBFB1F1010100F8012DF9D17047000026
:1014A00080B50B48016841F400710160026842F4A4
:1014B00080620260016841F480710160032000F0E5
:1014C00016F80F2000F052FCFFF7D8FA002002BDFA
:1014D000003C02400A01010002D4274B5A547047D5
:1014E000264801F00F01014401F8042C70472449FB
:1014F0000A6860F30A2240F2FA5060F31F420A6061
:10150000704770B51E4C2368C3F302230124C3F156
:101510000705052D2FBF0F26C3F1070604FA06F6AF
:10152000761E1D1D072D34BF0023DB1E3140994060
:1015300004FA03F3BDE870405B1E1A401143C9E78B
:10154000010007D4012200F01F010E4B8A40400920
:1015500043F820207047401EB0F1807F01D3012066
:10156000704709494860F0220848027000238B60E8
:1015700007220A600020704700E400E018ED00E058
:101580000CED00E000E100E010E000E023ED00E001
:1015900038B5040001D1012032BD04F13805687866
:1015A00008B900F013F800F007F800F020F8FFE7A2
:1015B000486100F010F832BD242068702168C868C6
:1015C00020F40050C860204600F01CB800212970AB
:1015D0002046FFF7C7BA2168C86840F40050C860C9
:1015E0006A60202169702020A8700020704721685F
:1015F000086920F49040086100222168486920F0C1
:101600002A00704770B50446192622681169E068FF
:1016100021F44051014311616FF06305D3683A48EA
:10162000A168034020690B4361690343E0690B43F0
:101630000343D3605169A069344B21F440710143E5
:1016400051613348E169B1F5004F35D1824218BF8D
:101650009A4215D100F05FFB46436068400000F0FD
:1016600059F805FB0015ED0032356421B5FBF1F1A9
:101670004A0002F4F87202EB001201F007013EE0AA
:1016800000F041FB464360684000B6FBF0F0642187
:10169000B0FBF1F105FB0105ED0032356420B5FB2F
:1016A000F0F0420002F4F87202EB0112216800F03F
:1016B00007008018886070BD824218BF9A4207D127
:1016C00000F029FB46436068800000F023F809E041
:1016D00000F019FB616846438900B6FBF1F1642014
:1016E000B1FBF0F005FB00152D0132356421B5FB8F
:1016F000F1F101F0F00202EB001201F00F0120689D
:101700008918816070BD0000F369FFFF001401407B
:1017100000100140B6FBF0F16422B1FBF2F070471B
:1017200070B5464C20210020217060700022444E8C
:1017300040213046FFF788FE1E2000F087F8414D1B
:101740004FF0FF33022221462846FEF757FD1420B2
:1017500000F07CF84FF0FF330122211D2846FEF7F0
:10176000F4FD1E2000F072F8012240213046FFF700
:101770006BFEBDE870401E2068E070B5304C012261
:10178000102100F03DF8642000F010FB00F03BF861
:10179000002200F034F8642000F008FB012200F081
:1017A0002EF84FF47A7000F001FB002200F02CF8C4
:1017B00000F02EF8234D214E4FF0FF331322311D40
:1017C0002846FEF7C2FD00F023F800F01CF800F0F8
:1017D0001FF811203070002200F016F800F018F801
:1017E0004FF0FF33012231462846FEF707FD00F097
:1017F0000FF800F008F8BDE87040192026E0082135
:101800002046FFF721BE012240212046FFF71CBEE3
:1018100019201BE080B5322000F018F8002240218A
:101820000748FFF711FE322000F010F8BDE808402D
:10183000132205490348FEF726BF0000700100206F
:1018400000100240D000002074010020002100E0C0
:10185000491C8142FCD370472DE9FC47040016D097
:101860002078DFF8C874C10713D5B86800F00C0001
:10187000042807D0B86800F00C00082842D1786826
:1018800041023FD53868810303D56068002800F025
:101890003C812078DFF8A494810719D5B86810F04E
:1018A0000C0F07D0B86800F00C00082846D1786803
:1018B000410243D43868810703D5E068012840F02D
:1018C00024813968206921F0F80141EAC0013960BA
:1018D0002178DFF86C84080766D56069DFF8641446
:1018E000002853D001220A60FFF788F90546D8F88E
:1018F0000400810758D4FFF781F9401B0228F6D96C
:10190000032005E16168B970606858B1FFF776F9A6
:10191000054639688803BCD4FFF770F9401B652879
:10192000F7D3EDE7FFF76AF9054639688803B0D5C4
:10193000FFF764F9401B6528F7D3E1E7E068B0B131
:101940000122C9F80020FFF759F9054639688807D0
:1019500005D4FFF753F9401B0228F7D9D0E73868C0
:10196000216920F0F80040EAC1003860B0E70022A9
:10197000C9F80020FFF742F9054638688107A7D566
:10198000FFF73CF9401B0228F7D9B9E70860FFF7D9
:1019900035F90546D8F80400810705D5FFF72EF97B
:1019A000401B0228F6D9ABE72078410751D5386CA7
:1019B0000025C1000BD4002000900125396C41F0B6
:1019C00080513964386C00F0805000900098DFF846
:1019D0007863306840F4807030603168CA0510D494
:1019E000306840F480703060FFF708F98246306854
:1019F000C10506D4FFF702F9A0EB0A000228F6D9C8
:101A00007EE7A16888F8001041F28936A06868B1C5
:101A1000FFF7F4F88246D8F80010880714D4FFF7CF
:101A2000EDF8A0EB0A00B042F5D369E7FFF7E6F85E
:101A30008246D8F80000810706D5FFF7DFF8A0EB53
:101A40000A00B042F5D35BE71DB1386C20F080503E
:101A50003864A06900285AD0B96801F00C0108293F
:101A600037D0022829D100F055F8054638688101A1
:101A700005D5FFF7C3F8401B6528F7D340E7E269B7
:101A8000206A616A0243A06A400842EA8112401E4D
:101A900042EA0042E06A42EA00627A600121C9F843
:101AA0006010FFF7ABF80446386881012FD4FFF7C8
:101AB000A5F8001B6528F7D322E700F02BF80446B1
:101AC0003868810123D5FFF799F8001B6528F7D303
:101AD00016E7012819D07868E16900F480028A428B
:101AE00002BF00F03F02216A8A420ED1636AC0F34E
:101AF0008811994202BF00F44032A16A8A4202BFB3
:101B000000F07060E16A884201D0012000E000200E
:101B1000BDE8F6870020C9F86000FFF76FB82DE92F
:101B2000F04104000F4652D0884E306800F00F009C
:101B3000B84202D200F071F849D121687B4D880784
:101B400012D5490703D5A86840F4E050A860217871
:101B5000080703D5A96841F46041A960A968A06895
:101B600021F0F0010143A9602178C80727D56068FA
:101B7000012802D129688A0303E0022803D12968D9
:101B80008A0103D423E02B68990720D5AA6892081C
:101B900040EA8200A860FFF731F88046A9686068D3
:101BA00001F00C01B1EB800F09D0FFF727F8A0EB93
:101BB000080041F289318842F0D303202BE03068DD
:101BC00000F00F00874204D200F027F801D0012076
:101BD00021E02178480705D5A968E06821F4E051A3
:101BE0000143A96021780A0706D5A868216920F475
:101BF000604040EAC100A86000F05BF8AA68544960
:101C0000C2F303128B5C4A49D84008604A48006816
:101C100000F0ACF80020BDE8F0813770316801F0C9
:101C20000F01B942704770B586B00E461446494D53
:101C3000E8B90090A96A41F00101A9620221A86AED
:101C400000F0010000904FF48070009A0291019022
:101C50000021032203910591049201A93E48FFF758
:101C60000BFB296821F0EC610E4326431EE00020A7
:101C700000900222A96A41F00401A9624FF40071A8
:101C8000A86A00F004000090009B34480191029281
:101C90000321049100220392059201A9FFF7ECFAB7
:101CA000286820F07840064346EAC4062E6006B055
:101CB00070BD30B52A4C606800F00C00042802D0DA
:101CC000082802D01DE0274830BD22682168002383
:101CD000480202F03F0204D525682248C5F3881166
:101CE00003E021681348C1F38811A0FB010100F053
:101CF00071F82168C1F30141491C4900B0FBF1F0C2
:101D000030BD0C4830BD0A48124B00681A681649AD
:101D1000C2F3822206E006480E4B00681A68124998
:101D2000C2F34232895CC84070470000003802406C
:101D30000C0000200024F4000800002000004742AE
:101D400070380240800E474200700040003C024064
:101D5000241F00080838024000000240000802402A
:101D60000438024000127A007820000838B50D4D82
:101D70000D4A297804464FF47A731068B3FBF1F1E9
:101D8000B0FBF1F0FFF7E7FB50B9102C08D20022AE
:101D900021464FF0FF30FFF7B4FBAC60002032BDAE
:101DA000012032BD000000200C00002031B5FEF7FC
:101DB00025FF009D15F1010F044602D00449087863
:101DC0004519FEF71BFF001BA842FAD331BD00BF27
:101DD00000000020D3BBD9B1B2F5803F5BD2022A0C
:101DE0001ED98C46B1FBF2F102FB11C31B0443EA7E
:101DF0001043B3FBF2FC02FB1C3380B240EA034306
:101E0000B3FBF2F002FB103240EA0C4000237047B3
:101E1000022A05D98446B0FBF2F002FB10C27047DB
:101E20004AB105D100F0010249085FEA300070476D
:101E300000220023704700F051B80B00020000217F
:101E400000207047F7D3002200237047904271EBC7
:101E5000030CF2D370B5B1FA81F4B3FA83F52C1BFD
:101E6000A340C4F1200532FA05F63343A2405FF0E7
:101E70000046E64002E05B085FEA3202841A71EB3A
:101E8000030524BF204629467641F4D302000B0007
:101E90003000002170BD70B5B1FA81F4B2FA82F55C
:101EA000C4F120046419B4F12006DAD3B2405FF023
:101EB0000044F440002502E052085FEA3303C61AEA
:101EC00071EB020E24BF3046714664416D41F3D37D
:101ED00002000B002000290070BD000070470000C8
:101EE00010B50C490C4C086840F001000860002354
:101EF0008B600A68094802400A604C6000220B6847
:101F0000074823F480230B60CA604FF00061016032
:101F100010BD00000038024010300024FFFFF6FE24
:101F200008ED00E0000000000000000001020304D2
:101F30000607080930B4002412E050F8043BDA0721
:101F400044BF4B445B1E091F042943F8044BFAD2DB
:101F50001A468D0744BF1C80921CCB0748BF1470E3
:101F600050F8041B0029E8D130BC704710B5034A73
:101F70007A440832024C7C44A41D03E05400000063
:101F80007400000004E01168101D114488470246E7
:101F9000A242F8D110BD0000FEE7FEE7FEE7FEE733
:101FA000FEE770477047704700F00AB80248FEF736
:101FB000DBBE0248FEF7D8BE1000002070000020F3
:101FC000024A5168107841185160704700000020A3
:101FD00065FFFFFF780100001000002000000000F6
:101FE00073EAFFFF100000008000000000000020E6
:101FF0000000000000F00DF8002801D0FFF7B6FF48
:10200000AFF300800020AFF30080FEF7ADFF00F0DB
:1020100002F80120704700F001B80000074638467A
:1020200000F002F8FBE7000080B5AFF30080024A41
:1020300011001820ABBEFBE7260002000548014650
:1020400003B4684680F30988AFF30080AFF30080E3
:10205000FFF7D0FFA5EDF5FE014880470148004796
:10206000E11E00083D200008010000000000000003
:10207000100000000024F40000000000010203042E
:10208000FFF7FEBFFFF7FEBFFFF7FEBFFFF7FEBF84
:10209000FFF7FEBFFFF7FEBFFFF7FEBFFFF7FEBF74
:1020A000FFF7FEBFFFF7FEBFFFF7FEBFFFF7FEBF64
:1020B000FFF7FEBFFFF7FEBFFFF7FEBFFFF7FEBF54
:1020C000FFF7FEBFFFF7FEBFFFF7FEBFFFF7FEBF44
:1020D000FFF7FEBFFFF7FEBFFFF7FEBFFFF7FEBF34
:1020E000FFF7FEBFFFF7FEBFFFF7FEBFFFF7FEBF24
:1020F000FFF7FEBFFFF7FEBFFFF7FEBFFFF7FEBF14
:10210000FFF7FEBFFFF7FEBFFFF7FEBFFFF7FEBF03
:10211000FFF7FEBFFFF7FEBFFFF7FEBFFFF7FEBFF3
:10212000FFF7FEBFFFF7FEBFFFF7FEBFFFF7FEBFE3
:10213000FFF7FEBFFFF7FEBFFFF7FEBFFFF7FEBFD3
:10214000FFF7FEBFFFF7FEBFFFF7FEBFFFF7FEBFC3
:10215000FFF7FEBFFFF7FEBFFFF7FEBFFFF7FEBFB3
:10216000FFF7FEBFFFF7FEBFFFF7FEBFFFF7FEBFA3
:10217000FFF7FEBFFFF7FEBFFFF7FEBFFFF7FEBF93
:10218000FFF7FEBFFFF7FEBFFFF7FEBFFFF7FEBF83
:10219000FFF7FEBFFFF7FEBFFFF7FEBFFFF7FEBF73
:1021A000FFF7FEBFFFF7FEBFFFF7FEBFFFF7FEBF63
:0821B000FFF7FEBFFFF7FEBFC1
:040000050800203D92
:00000001FF
