:020000040800F2
:10000000D81D0020E5290008FD270008FF2700086B
:100010000128000803280008052800080000000047
:100020000000000000000000000000000728000899
:1000300009280008000000000B2800080D2800080F
:10004000FD290008012A0008052A0008092A0008DD
:100050000D2A0008112A0008152A0008192A00088C
:100060001B2800081D2A0008212A0008252A00084C
:10007000292A00082D2A000821280008272800081E
:10008000312A0008352A0008392A00083D2A0008CC
:10009000412A0008452A0008492A00084D2A00087C
:1000A000512A0008552A0008592A00085D2A00082C
:1000B000612A0008652A0008692A00086D2A0008DC
:1000C000712A0008752A0008792A00087D2A00088C
:1000D000812A0008852A0008892A00088D2A00083C
:1000E000912A0008952A0008992A00089D2A0008EC
:1000F000A12A0008A52A0008A92A0008AD2A00089C
:10010000B12A0008B52A0008B92A0008BD2A00084B
:100110002D280008C12A0008C52A0008C92A00089D
:1001200033280008CD2A0008D12A00083928000801
:10013000D52A0008D92A0008DD2A0008E12A00088B
:10014000E52A0008E92A0008ED2A0008F12A00083B
:10015000F52A0008F92A0008FD2A0008012B0008EA
:10016000052B0008092B00080D2B0008112B000897
:10017000152B0008192B00081D2B0008000000009B
:10018000212B000838B5040001D1012032BD002028
:10019000A06204F15005687820B900222A70204638
:1001A00000F012FC0221697000F064FB6268A06834
:1001B000E168A369024320690A43616902430A4373
:1001C00003F40073E069216A1A430243A06A2368BA
:1001D0000A4302431A60A169606A2268090C01F0AF
:1001E0000401014351602168C86920F40060C861BE
:1001F0000021696001206870002032BD2DE9F843BC
:10020000074607F15006002530780C46914698467F
:10021000012808BF022000F096800120307000F015
:10022000E1FC7178012918BF022554D1002C18BFB8
:10023000B9F1000F00F08380032171700023736017
:100240003C63A7F83490A7F836900021B963BB87C8
:10025000F9877B643964BB68B3F5004F04D13B6810
:10026000196841F48041196039680B685C0603D451
:100270000B6843F040030B604446F968B1F5006F2A
:1002800079682CD1002918BFB9F1010F09D13B6B56
:1002900039681A88CA603B6B9A1C3A63F98E4A1E09
:1002A000FA86804606E03A6B1188C1603A6B901C72
:1002B00000F0C7F9F88E002835D0386882689107B9
:1002C000F1D400F08FFCA0EB0800A04204D314F19D
:1002D000010FEFD0032533E0002CEBD1FAE7002922
:1002E00018BFB9F1010F00F0C2F9804608E03A6B7F
:1002F00011780173386B411C3963F88E411EF98601
:10030000F88E80B1386882689107F0D400F06AFCFA
:10031000A0EB0800A04203D314F1010FF0D0D9E7FD
:10032000002CEDD1D6E742462146384600F005FBC9
:1003300008B12020706000F08FF9706800B10125CD
:1003400000F09DF82846BDE8F2832DE9F843074602
:10035000002478680D469146984607F15006B0F59E
:10036000827F04BFB86800280BD14FF0040C86F8D8
:1003700001C0CDF800804B462A46384600F084F88C
:100380007BE03078012808BF022076D00120307051
:1003900000F028FC7178012918BF02246AD1002DD1
:1003A00018BFB9F1000F64D004227270002171608F
:1003B000BD63A7F83C90A7F83E903963B986002248
:1003C000FA8639647A64B968B1F5004F04D13A68A5
:1003D000116821F48041116039680A68530600F001
:1003E00035F90546F968002926D108E0007BB96B8C
:1003F0000870B86B421CBA63F98F481EF887F88FF3
:1004000068B338688268D107F0D400F0EBFB401B7A
:10041000404504D318F1010FF1D003242AE0B8F1CC
:10042000000FECD1F9E7C168B86B0180B96B8A1C89
:10043000BA63F98F481EF887F88F80B138688168F1
:10044000CA07F0D400F0CEFB401B404503D318F19F
:10045000010FF1D0E1E7B8F1000FEDD1DDE72A4659
:100460004146384600F054FA08B1202070607068A8
:1004700000B1012400F003F82046BDE8F28301201A
:1004800070700021317070472DE9FC47074607F175
:100490005006012530788A4691464FF00008012821
:1004A00008BF022000F0CB801C46357000F09AFB9C
:1004B0007278012A23460AD07968B1F5827F02BF9B
:1004C000B9680029042A02D04FF00208B4E0BAF15A
:1004D000000F18BFB9F1000F00D00CB9A846ABE06F
:1004E00096F801C0BCF1040F1CBF4FF0050E86F852
:1004F00001E0C446C6F804C0C7F83890FC87BC8742
:10050000C7F830A0FC86BC86C7F84080C7F8448096
:1005100039680A68540600F099F8F9680A9CB1F540
:10052000006F796841D1002918BF012B09D13B6BBD
:1005300039681A88CA603A6B911C3963FA8E511E69
:10054000F9868146F88E002804BFF88F002866D00F
:100550003968886882070CD5F88E002818BF002DEE
:1005600007D0386B0288CA600025396B881C00F000
:1005700068F839688868C2070BD5F88F48B1C86831
:10058000B96B08800125B86B821CBA63F88F411ED5
:10059000F98700F027FBA0EB0900A042D2D314F1A9
:1005A000010FCFD04FF0030846E0002918BF012B00
:1005B00000F05DF88146F88E002804BFF88F00280F
:1005C0002DD03968886882070CD5F88E002818BFAE
:1005D000002D07D0386B02780A730025396B481C50
:1005E00000F02FF839688868C2070BD5F88F48B13A
:1005F000C868B96B08700125BA6B501CB863F98FD5
:10060000481EF88700F0EEFAA0EB0900A04203D3E1
:1006100014F1010FCFD0C5E7002CCCD1C2E74A4678
:100620002146384600F089F920B120204FF001081A
:10063000706001E000F010F8FFF721FF4046BDE8D0
:10064000F6873863F98E481EF886704703D40A6827
:1006500042F040020A607047B86838B90021009142
:100660003968C868009089680091009A704709D17C
:100670003B6B39681A780A733A6B511C3963FA8EEE
:10068000511EF9867047F8B5044604F1500600255E
:100690003078012801D10220F2BD01203070777836
:1006A000012F09D06068B0F5827F02BFA0680028E2
:1006B000042F01D0022568E0002918BF002A01D0CC
:1006C000180001D1012560E0707804281CBF0527BF
:1006D0007770002070602163A386E386A263A387FE
:1006E000E38720646064E06C7278042A07D10FF21B
:1006F000551101640FF29D00E16CC86306E00FF232
:100700004D120FF2F9010264E06CC163E06C0FF26C
:100710004511C164E06C0565E38F2068A26B00F1B0
:100720000C01E06C00F0DCFAA8B92168486840F0E0
:1007300001004860A06C0564A06CC563A06CC56432
:10074000A06C0565E38E2068216B00F10C02A06CA3
:1007500000F0C6FA38B1706840F0100070600125F2
:100760000120707011E0206801684A0603D4016816
:1007700041F0400101602168486840F02000486075
:100780002068416841F00201416000203070284635
:10079000F2BD000038B500F01CF800F015F80ED4DA
:1007A00000F01BF800F01FF86421204600F0B0F8BC
:1007B00008B12021616500F03DF800B119E0204644
:1007C000BDE8324000F092BD2B6819680246C805AA
:1007D00070470546AC6B00F005BA2168486820F008
:1007E00020004860704721684868800880004860A1
:1007F00070472046BDE8324000F01EBE38B5FFF716
:10080000E8FFFFF7E1FF0DD4FFF7E7FF00F00FF877
:1008100000F0A5F8FFF7E7FF0021E18600F00AF8F5
:1008200000B1E6E72046BDE8324000F068BD642133
:10083000204682E00020E087012184F85110606D9D
:1008400070470000806B00F0F8BD0000806B00F086
:10085000F5BD0000806B026851688908890051600D
:100860000121426D42F01002426580F8511000F003
:10087000E3BD00002168086820F040000860704770
:100880002DE9F041069F05460E4690461C46296814
:1008900088683040B0420CBF01210021414534D06E
:1008A00014F1010FF3D000F09DF9C01BA04201D25A
:1008B000002CECD12968486820F0E00048606868A6
:1008C000B0F5827F0BD1A868B0F5004F18BFB0F526
:1008D000806F04D12968086820F040000860A86A89
:1008E000B0F5005F09D12868016821F4005101606A
:1008F0002968086840F40050086005F150000122A2
:10090000427000210170032000E00020BDE8F0816A
:100910001CB504460B466068B0F5827F08D1A0681C
:10092000B0F5004F18BFB0F5806F01D1FFF7A2FFFF
:10093000009280210022204605E01CB500920B4663
:10094000044600228021FFF79BFF10B100F002F85F
:10095000032016BD606D40F020006065704718B13F
:10096000606D40F02000606570470EE002684368EB
:10097000024408305FEAC37C44BF4B445B1E52F81C
:1009800004CB43F804CB091FF9D150F8041B00290C
:10099000ECD1704781B0002000908548416841F457
:1009A00080414160416801F4804100910021009B39
:1009B0000091026842F080520260006800F08050AE
:1009C0000090009801B070472DE9F84386B00546C5
:1009D00000F0E8F82A68774B774878499A424FF454
:1009E000806943D1002200924FF0C0674B69744C7C
:1009F00043F480534B614FF400384A6902F480524B
:100A000000920022009E6F4E00920B6843F002039A
:100A10000B600223096801F0020100913821009A5D
:100A2000029300220392019103230522049305926D
:100A300001A900F005FD266067600020A06000F0BD
:100A40006CF808B100F0F6FCEC64A56306F1480010
:100A50005D4C206067604021A160002000F05DF8DF
:100A600008B100F0E7FCAC64A5634EE0574B9A4236
:100A70004BD1002200920B69554F43F480430B6128
:100A80000A6902F4804200920022009B0092022236
:100A90000E6846F002060E6009684E4E01F0020133
:100AA00000914FF44441009B0191029203210023E5
:100AB000049105220393059201A900F0C1FC0020D6
:100AC0007860B860F8607861B861F861386278621F
:100AD0003E6000F01DF808B100F0ACFCEF64BD63AF
:100AE00040203D4F06F118020021B8603A6079605D
:100AF000F9607961B961F9613962796200F008F8E9
:100B000008B100F097FCAF64BD6307B0BDE8F083A7
:100B1000C7F81090384600F06BB8E060C4F8109049
:100B20006061A061E061C4F820806062204600F04E
:100B30005FB810B586B0044600F034F82368274942
:100B40008B422DD1002000901C48016941F4002106
:100B50000161016901F4002100910021009B0091D5
:100B6000026842F0040202600222006800F0040001
:100B700000904FF44060009902920121039101908E
:100B8000082103220591049201A9154800F058FCA0
:100B900000220021342000F07AFD342000F096FD80
:100BA00006B010BD1421002201A800F0B7BD00005E
:100BB000403802400030014000040240303802401A
:100BC000C0170020106402402018002000380040A8
:100BD0008018002058600240E0180020004C0040BF
:100BE0000008024001484068704700BF3000002004
:100BF00070B50446FFF7F6FF06460CB9012070BD3C
:100C000004F13405002028700221697000F062F8B8
:100C100022681168C80708D5FFF7E4FF801B062883
:100C2000F6D320212962032052E01368DFF8DC02AA
:100C300061680340A0680B43E168034320690B43EC
:100C400061690343A0690B43E16903430B43216AD4
:100C5000606A1943042803D1E06A0843216B014309
:100C6000116022685369606ADB08042840EAC30304
:100C70000AD1A66AE06A334330B1A16989B9002E6E
:100C800018BF022E1FD016D35361204600F05AF928
:100C9000A96A3F228A40826000202862012169708F
:100CA00070BDB1F5005F0AD1032EEDD8DFE806F084
:100CB0000D0B0D03E8E7B0F1C07FE5D105E0022E92
:100CC00003D9F61EE0D1C001DED540212962012002
:100CD000687070BD2168086840084000086070476F
:100CE000F8B5044604F13407002538787E6A0128F7
:100CF00001D10220F2BD01203870787801281DD181
:100D00004FF0020C87F801C000203862204600F046
:100D100009F9B86A3F2101FA00FCC6F808C020684A
:100D2000016841F016010160F86820B12168086887
:100D300040F00800086000F005F801E03D70022571
:100D40002846F2BD2168086840F00100086070473D
:100D500090F83520022A03D0802141650120704798
:100D6000052180F8351001680868400840000860D7
:100D7000002070472DE9FC41064606F134050020AD
:100D8000634A00904FF416506F6A11683C68B1FBDB
:100D9000F0F8A86A082101FA00F004420ED0306889
:100DA00003685A070AD5036823F004030360A86A9E
:100DB0008140B960296A41F001012962A86A24FAD8
:100DC00000F2D1070BD5326851690A0607D5012117
:100DD00001FA00F0B860286A40F00200286204219D
:100DE000A86A81400C4208D033681A68900704D57D
:100DF000B960286A40F0040028621021A86A814086
:100E00000C421BD033681A68100717D5B9603068D8
:100E10000268510307D5006801030BD5696969B100
:100E2000304688470AE00168CA0503D4016821F00A
:100E300008010160E96809B130468847A86A2021A5
:100E400081400C4241D032681068C3063DD5B9607C
:100E50003068697805291ED1026822F01602026006
:100E6000316800F057F804BF6869002804D0306882
:100E7000016821F0080101603F22A86A8240BA603F
:100E80000021297001226A70E96900293AD03046B0
:100E9000BDE8FC41084701684A0307D50068010323
:100EA0000FD4296989B1304688470EE00168CA0528
:100EB00007D4016821F01001016000222A7001208E
:100EC0006870A96809B130468847286AD0B1296A94
:100ED000C80711D5052169703168FFF7FCFE00983D
:100EE000401C8045009003D332681168C807F6D4CF
:100EF00000222A7001216970A96919B13046BDE844
:100F0000FC410847BDE8F381000000003F8010F07D
:100F10003C000020486920F080004861E868002813
:100F20007047000030B50468256825F480252560E9
:100F300063608068402802D1A260E16030BDA1609A
:100F4000E26030BD10B501461822086807A400F021
:100F5000FF03103BB3FBF2F2800AA35CCB65800277
:100F6000042A28BF001D886510BD00000006101669
:100F7000000610162DE9F84386B000F0D9FB00F00A
:100F80007AF91421684600F0EDFB0020DFF83C649C
:100F9000DFF83C44DFF83C54DFF83C94DFF83C7465
:100FA000DFF83C840590316841F010013160306811
:100FB00000F0100000F051F941F08001316030681C
:100FC00000F0800000F049F941F002013160306822
:100FD00000F0020000F03BF942F004023260306899
:100FE00000F0040000F033F942F001023260306892
:100FF00000F0010005900020059A0590012231685B
:1010000041F0080131601B21306800F008000590B4
:101010000598204600F0F6FA00224021204600F014
:10102000F1FA00224FF4E071284600F0EBFA0022BA
:101030004FF4A061484600F0E5FA00227B213846D3
:1010400000F0E0FA01228021384600F0DBFA0022AD
:101050008021404600F0D6FA0420DFF88813009083
:101060000191002202926946204600F0E9F95B20D6
:1010700000F0F9F8204600F0E3F94FF4E07000F0DA
:10108000F2F8284600F0DCF94FF4007402220094D4
:10109000019200210291032204910392694628469D
:1010A00000F0CEF94FF4A0600021009001220291DF
:1010B000039101926946484600F0C2F9FB22009272
:1010C000012100F0D2F8384600F0BAF9802000F093
:1010D000CAF8404600F0B4F9002000903168C24DD3
:1010E00041F400113160306800F4001000900020DD
:1010F000009900900021326842F4800232600022A0
:10110000306800F48000009000980E2000F0BFFAD4
:101110000E2000F0DBFA002200210F2000F0B7FAC9
:101120000F2000F0D3FA00220021382000F0AFFA9F
:10113000382000F0CBFA002200213B2000F0A7FA73
:101140003B2000F0C3FA4FF4E130A8492866E96576
:101150000C20002128676966A966E9666967A967A6
:1011600005F15C0000F002FB08B100F063F9A04853
:10117000A04A02604FF482764660002181600161DE
:1011800000220821C161C2600A21426102624262FA
:101190008262C1628461FEF7F5FF08B100F04AF98E
:1011A000954F6F600120AE600021A861E960296160
:1011B00069610A2010210022286329626A62AA62FA
:1011C000EA62EC61281DFEF7DDFF08B100F032F99C
:1011D00000220021082000F05AFA082000F076FAD8
:1011E00000F0EEFC4FF480718448854E00F0BAFDAB
:1011F00005F19C040020834A20600023824813707C
:101200000021824A0170137001228148017005F1AA
:101210005C00804900F003FB09E0022814D141F290
:101220003011304600F09EFA0020A0600BE03868D4
:10123000606028780128F0D101224FF4807148467F
:1012400000F0E0F90020287000F0BAFDEFE705900B
:101250000020059905903268704705900020059A96
:10126000059031687047012100900191002202929F
:1012700003926946704700B591B0302105A800F08F
:1012800071FA1421684600F06DFA102109910122CB
:1012900000210C910892C3210E91022005900B9021
:1012A0000D220F9004210D92109105A800F030FF3F
:1012B00008B100F0BFF8022101910F204FF48051D6
:1012C000009000234FF4A052049102930392032153
:1012D000684601F080F808B100F0ACF84FF0E06229
:1012E0000021012001F0FBF811B000BD4049884207
:1012F00000D100E07047484A107801F093B9F8B582
:10130000052000F029FD01224021314800F07AF942
:10131000DFF808E19EF803109EF8040040EA01207F
:101320003F4908809EF805309EF8062042EA0322D5
:101330004A809EF807409EF8083043EA04238B80D9
:101340009EF809509EF80A4044EA0524CC809EF895
:101350000B609EF80C5045EA06250D819EF80D7035
:101360009EF80E6046EA07264E819EF80FC09EF852
:10137000107047EA0C278F819EF811C09EF812E08A
:101380004EEA0C2EA1F80EE01D490880CC800D819C
:101390004E818F814A808B80A1F80EE0F1BD82B032
:1013A000026812498A420DD10A2000900098411E1D
:1013B00000280091FAD100224FF48061064802B063
:1013C00000F020B902B07047000000003038024041
:1013D000001002400008024000000240000C0240E1
:1013E0000004024000002110B4160020004C004010
:1013F00040190020003800400030014074120020E5
:101400004000002047140020481400204914002008
:101410004A14002046140020701100209C1900205E
:10142000EC15002080B5052000F096FCBDE80140D9
:1014300000F075BC72B6FEE7704770477047000059
:101440002DE9F84F0027794EDFF8E4814FF00F09BE
:1014500002460B462EE0774DAA4214BF4FF0090E0C
:101460004FF0080E0EFA01F141EA040E724941F8FC
:101470002CE0C54331685C682940E40348BF014360
:10148000316071685C682940A40348BF0143716002
:10149000B1685C682940E40248BF0143B160F1686B
:1014A00005EA010C5968890248BF40EA0C0CC6F8ED
:1014B0000CC07F1C186830FA07F100F0A1800121F0
:1014C000B9400840F5D04FEA470C032404FA0CF465
:1014D0006FEA040E5C68012C18BF022C03D0112C9B
:1014E00018BF122C10D19468DD680EEA040405FAC6
:1014F0000CF52C439460546824EA01015C68C4F341
:101500000014BC4021435160D46899680EEA040479
:1015100001FA0CF10C43D460B9005C68022C18BFCE
:10152000122C11D1FC0802EB840401F01C05D4F844
:1015300020B009FA05FA2BEA0A0BD3F810A00AFA30
:1015400005F545EA0B05256214680EEA04051C79C9
:1015500004F0030404FA0CF444EA050CC2F800C0D9
:101560005C68E400A5D54FF0000ECDF800E04FEA2E
:10157000970CD8F8004044F48044C8F8004001F0CB
:101580000C01D8F800E00EF4804ECDF800E009FA26
:1015900001F5009CDFF8A0E05EF82C40AC43274D3D
:1015A000AA4208BF4FF0000E29D0254DAA4208BF1D
:1015B0004FF0010E23D0234DAA4208BF4FF0020E78
:1015C0001DD0214DAA4208BF4FF0030E17D01F4D6A
:1015D000AA4208BF4FF0040E11D01D4DAA4208BF09
:1015E0004FF0050E0BD01B4DAA4208BF4FF0060E60
:1015F00005D0194DAA427FF42EAF4FF0070E31E708
:10160000BDE8F18F02B909048161704742690A425D
:1016100018BF09048161704710490A6803461A42DD
:101620001CBF0B60FFF7FEBE70470000003C01408E
:1016300044380240002002400838014000000240C7
:101640000004024000080240000C0240001002406A
:101650000014024000180240001C0240143C0140EB
:101660000A01010002D4274B5A547047264801F062
:101670000F01014401F8042C704724490A6860F303
:101680000A2240F2FA5060F31F420A60704770B5B8
:101690001E4C2368C3F302230124C3F10705052D63
:1016A0002FBF0F26C3F1070604FA06F6761E1D1D8E
:1016B000072D34BF0023DB1E3140994004FA03F3A9
:1016C000BDE870405B1E1A401143C9E7010007D412
:1016D000012200F01F010E4B8A40400943F82020F0
:1016E0007047401EB0F1807F01D301207047094947
:1016F0004860F0220848027000238B6007220A60CD
:101700000020704700E400E018ED00E00CED00E080
:1017100000E100E010E000E023ED00E04018491C8B
:101720001CBFB1F1010100F8012DF9D17047000093
:1017300080B50B48016841F400710160026842F411
:1017400080620260016841F4807101600320FFF74C
:1017500094FF0F2000F072FFFFF71CF9002002BD7C
:10176000003C0240002200F089BF000038B50400B0
:1017700001D1012032BD04F13805687808B900F0C4
:1017800013F800F007F800F020F8FFE7486100F0D8
:1017900010F832BD242068702168C86820F4005019
:1017A000C860204600F07EB9002129702046FFF76E
:1017B000C0B92168C86840F40050C8606A60202140
:1017C00069702020A870002070472168086920F403
:1017D0009040086100222168486920F02A00704783
:1017E00010B500F138035C78202C16D109B1140033
:1017F00001D1012010BD1C78012C0ED001241C70D9
:1018000001628284C2840021596021225A701970B9
:101810000168C86840F080002AE0022010BD10B5C1
:1018200000F138039C78202C20D109B1140001D19B
:10183000012010BD1C78012C18D001241C7081627D
:101840008285C2850021596022229A701970016830
:10185000CA6842F48072CA600268516941F00101AD
:1018600051610168C86840F0200001E0022010BD0D
:10187000C860002010BD416921F040014161606BEA
:10188000704770B5044620680268014612F00F0FD9
:10189000CB68456903F0200002F0200107D1002940
:1018A00018BF00285BD02046BDE87040B0E0EE07CE
:1018B00002D413F4907F52D0D60705D5DB0503D5AB
:1018C000E66B46F00106E663560705D5EB0703D540
:1018D000E66B46F00206E663960705D5EB0703D5EF
:1018E000E66B46F00406E663120706D508B9EA0778
:1018F00003D5E36B43F00803E363E26B002A6FD088
:1019000000291EBF0028204600F082F820684069A8
:10191000E26B110701D440061BD5204600F061F8A8
:10192000206841694A060FD5FFF7A5FF60B10FF2A5
:10193000D1010165606BFFF70BFA002850D0606B96
:10194000016DBDE8704008472046BDE8704000F0DA
:10195000AEBE204600F0ABFE0020E06370BD110675
:101960002DD518062BD594F83910212938D1A06827
:10197000B0F5805F0DD1226A21681088C0F308009D
:10198000486020690028206A0CBF811C411C21622C
:1019900005E0206A421C2262017820684160E08CE8
:1019A000401EE08480B2D8B92168C86820F0800069
:1019B000C8602168C86840F04000C86070BD50062B
:1019C0000ED559060CD52068C16821F04001C160D0
:1019D0002046202184F83910BDE87040FFF7DFBCB5
:1019E00070BD0268D16821F49071D16002685169BC
:1019F000490849005161202280F83A2070470000D0
:101A0000806B0022C2850021C18400F050BE00001E
:101A100010B590F83A10222942D18168B1F5805F63
:101A20002AD1826A0169134601BB04686168C1F367
:101A30000801921C82621980C18D491EC18589B23C
:101A400061BB0268D16821F02001D1600268D168D1
:101A500021F48071D16001684A69520852004A61DC
:101A6000202180F83A1000F081F917E001684968F8
:101A700001F0FF01521CDDE701690029816A05D1EF
:101A80004A1C826203685A680A70D5E74B1C83625D
:101A90000268536803F07F030B70CDE7002010BD90
:101AA000022010BD70B50446192622681169E0684D
:101AB00021F44051014311616FF06305D3683A4846
:101AC000A168034020690B4361690343E0690B434C
:101AD0000343D3605169A069344B21F44071014341
:101AE00051613348E169B1F5004F35D1824218BFE9
:101AF0009A4215D100F06BFD46436068400000F04B
:101B000059F805FB0015ED0032356421B5FBF1F104
:101B10004A0002F4F87202EB001201F007013EE005
:101B200000F04DFD464360684000B6FBF0F06421D4
:101B3000B0FBF1F105FB0105ED0032356420B5FB8A
:101B4000F0F0420002F4F87202EB0112216800F09A
:101B500007008018886070BD824218BF9A4207D182
:101B600000F035FD46436068800000F023F809E08E
:101B700000F025FD616846438900B6FBF1F1642061
:101B8000B1FBF0F005FB00152D0132356421B5FBEA
:101B9000F1F101F0F00202EB001201F00F012068F8
:101BA0008918816070BD0000F369FFFF00140140D7
:101BB00000100140B6FBF0F16422B1FBF2F0704777
:101BC00070B5614C0122102100F0A0F8642000F0F3
:101BD0006FFD012200F09FF8002200F096F86420CB
:101BE00000F066FD012200F090F84FF47A7000F0EA
:101BF0005FFD00F08FF800F0ADF8544D514E4FF0FE
:101C0000FF33132206F118012846FEF79EFB00F071
:101C1000A1F8012200F07FF800F09CF8112000F0FC
:101C200078F800F097F800F069F800F093F80122D6
:101C300000F071F800F08EF845220021112032707A
:101C40007170B07000F066F800F082F800F056F89D
:101C500000F07EF800F04BF800F07AF800F040F861
:101C600000F076F8012200F056F800F073F81A2020
:101C700000F04FF800F06EF800F040F800F06AF85D
:101C8000012200F048F800F065F84522327000218A
:101C900010207170B07000F03DF800F059F800F0BD
:101CA0002DF800F055F800F022F800F051F800F09F
:101CB00017F800F04DF8012200F02DF800F04AF876
:101CC000102000F026F800F045F800F017F800F0BA
:101CD00041F8012200F01FF8BDE8704019203BE0F8
:101CE0004FF0FF330122B11C2846FEF787BA4FF0B0
:101CF000FF330122711C2846FEF780BA4FF0FF33F4
:101D0000012231462846FEF779BA08212046FFF71E
:101D100079BC3070002240212046FFF773BC80B5AB
:101D2000002240210848FFF76DFC142000F014F851
:101D30000448BDE80050021D00F12C0113230348A4
:101D4000FEF7A1BC9819002000100240B816002030
:101D5000642001E01920FFE7002100E0491C8142D6
:101D6000FCD370470022FFF7D9BC000038B5C74C40
:101D7000C74A23780120A07060781354401CC5B274
:101D8000CD2DA8BF0020607001222146C148FFF779
:101D900046FD0021E17031BD4278012A0AD0032AB4
:101DA00009D0052A09D0062A06D00F2A06D0102A03
:101DB00005D0704754E0A6E0F0E0DFE0FDE02FE161
:101DC000F8B5B24C217901292BD100202071677818
:101DD000B14DAF4E7A1C3146284600F07DFC002301
:101DE0006370CD213046FFF7BDFCCD21AB48FFF736
:101DF000B9FC07F1FE01C9B2284600F06DF9E919F6
:101E00008A1E1178527842EA0122A5F8D020824237
:101E100004BF2878012804D139462846BDE8F4409B
:101E2000BAE7F1BD99488178012908D1C278511CDF
:101E3000652A03DB0021012281700271C1707047A5
:101E400038B505460C4601224FF480619448FFF7EF
:101E5000D9FB22462946BDE838408E48FFF7C0BC72
:101E60002DE9F8430746B878FC787D7944EA0024E8
:101E7000387945EA0025642DC8BF642528B200F0F2
:101E800017F9864E3978317000217A787270B07007
:101E90000027F21C01E0D1547F1CFBB28342FADB25
:101EA000214600237F4A044606F1030806F1030990
:101EB00017E0981003EB507047053F0E20F0070025
:101EC000A742A3EB000C0BDA5818105C40B119F8CC
:101ED00007E0012000FA0CF040EA0E0008F80700C5
:101EE0005B1CAB42E5DBE11CC9B2304600F0F4F804
:101EF000F21C31191055641D000A0871E1B2304618
:101F0000BDE8F4439CE72DE9F0418378C278447939
:101F1000624D42EA0322037944EA032403782B70DA
:101F2000002146786E706000A8708C4666005E489E
:101F30002F1D0FE0CBB29B1830F81380EB1C4FEA3B
:101F4000182E03F80CE007F80C800CF10203491C72
:101F50005FFA83FCB445EDDBF01CC1B2284600F00B
:101F6000BBF8291D020A01F81420EB1C761D03F8AA
:101F70001400F1B22846BDE8F04161E710B583785E
:101F8000C278447942EA0322037954EA032318BF52
:101F90000123444CA354BDE8104051E738B5847880
:101FA000C3780579404A43EA0423447944EA052486
:101FB00022F81340BDE8344042E7F8B501460A79FB
:101FC0004D7945EA02250027364A17E0DCB20C4479
:101FD0004FF0010CE4790CFA00FC1CEA0404A4465E
:101FE00018BF4FF0010C401CC0B202F806C010F040
:101FF000070F02D108B15B1C00207F1CFEB2AE426D
:10200000E4DB264C0622204600F066FB0621204633
:1020100000F062F8A0710821000AE071204632E069
:10202000F8B504464FF480512048FFF7EFFAA17845
:10203000E278657942EA0122217945EA012500200A
:10204000002719490DE0231804EB000EDB799EF8F8
:1020500008C04CEA0323B61821F81630801CC0B221
:102060007F1CFEB2AE42EEDB0C4D06222146284616
:1020700000F032FB0621284600F02EF8A871082156
:10208000000AE8712846BDE8F440D9E6461400206D
:102090004C14002010170020741300201C15002081
:1020A000000002405C170020EC150020000C0240EC
:1020B00081B000218DF8001001B2002908D4083841
:1020C0009DF8001002B2491C002A8DF80010F3D5CB
:1020D0009DF8000001B0704770B54FF6FF75002302
:1020E0000AA40CE0C25C554008222E4605F001050A
:1020F00034F81550521E85EA5605F6D15B1C8B420A
:10210000F0D3280A40EA052080B270BD000001A08B
:102110002DE9FC47040016D02078DFF8C874C10709
:1021200013D5B86800F00C00042807D0B86800F098
:102130000C00082842D1786841023FD538688103F5
:1021400003D56068002800F03C812078DFF8A49473
:10215000810719D5B86810F00C0F07D0B86800F0E7
:102160000C00082846D17868410243D438688107BA
:1021700003D5E068012840F024813968206921F006
:10218000F80141EAC00139602178DFF86C84080762
:1021900066D56069DFF86414002853D001220A6014
:1021A000FEF720FD0546D8F80400810758D4FEF755
:1021B00019FD401B0228F6D9032005E16168B970BA
:1021C000606858B1FEF70EFD054639688803BCD437
:1021D000FEF708FD401B6528F7D3EDE7FEF702FD8B
:1021E000054639688803B0D5FEF7FCFC401B65281E
:1021F000F7D3E1E7E068B0B10122C9F80020FEF7AB
:10220000F1FC05463968880705D4FEF7EBFC401B56
:102210000228F7D9D0E73868216920F0F80040EAB1
:10222000C1003860B0E70022C9F80020FEF7DAFCF0
:10223000054638688107A7D5FEF7D4FC401B022865
:10224000F7D9B9E70860FEF7CDFC0546D8F80400D9
:10225000810705D5FEF7C6FC401B0228F6D9ABE77F
:102260002078410751D5386C0025C1000BD40020DF
:1022700000900125396C41F080513964386C00F0D0
:10228000805000900098DFF87863306840F48070E8
:1022900030603168CA0510D4306840F48070306016
:1022A000FEF7A0FC82463068C10506D4FEF79AFC12
:1022B000A0EB0A000228F6D97EE7A16888F8001092
:1022C00041F28936A06868B1FEF78CFC8246D8F8E6
:1022D0000010880714D4FEF785FCA0EB0A00B0427A
:1022E000F5D369E7FEF77EFC8246D8F80000810747
:1022F00006D5FEF777FCA0EB0A00B042F5D35BE70A
:102300001DB1386C20F080503864A06900285AD084
:10231000B96801F00C01082937D0022829D100F052
:1023200055F805463868810105D5FEF75BFC401B72
:102330006528F7D340E7E269206A616A0243A06A30
:10234000400842EA8112401E42EA0042E06A42EA44
:1023500000627A600121C9F86010FEF743FC044670
:10236000386881012FD4FEF73DFC001B6528F7D3A8
:1023700022E700F02BF804463868810123D5FEF7E8
:1023800031FC001B6528F7D316E7012819D07868BF
:10239000E16900F480028A4202BF00F03F02216A34
:1023A0008A420ED1636AC0F38811994202BF00F4D9
:1023B0004032A16A8A4202BF00F07060E16A88423E
:1023C00001D0012000E00020BDE8F6870020C9F818
:1023D0006000FEF707BC2DE9F04104000F4652D023
:1023E000884E306800F00F00B84202D200F071F859
:1023F00049D121687B4D880712D5490703D5A868C4
:1024000040F4E050A8602178080703D5A96841F49A
:102410006041A960A968A06821F0F0010143A960AA
:102420002178C80727D56068012802D129688A0366
:1024300003E0022803D129688A0103D423E02B6832
:10244000990720D5AA68920840EA8200A860FEF7A2
:10245000C9FB8046A968606801F00C01B1EB800FF0
:1024600009D0FEF7BFFBA0EB080041F2893188429A
:10247000F0D303202BE0306800F00F00874204D235
:1024800000F027F801D0012021E02178480705D588
:10249000A968E06821F4E0510143A96021780A07A6
:1024A00006D5A868216920F4604040EAC100A86010
:1024B00000F05BF8AA685449C2F303128B5C4A49E6
:1024C000D84008604A48006800F0B8F80020BDE82D
:1024D000F0813770316801F00F01B942704770B573
:1024E00086B00E461446494DE8B90090A96A41F0FD
:1024F0000101A9620221A86A00F0010000904FF4D6
:102500008070009A029101900021032203910591AD
:10251000049201A93E48FEF793FF296821F0EC617F
:102520000E4326431EE0002000900222A96A41F0DB
:102530000401A9624FF40071A86A00F00400009041
:10254000009B3448019102920321049100220392DE
:10255000059201A9FEF774FF286820F07840064331
:1025600046EAC4062E6006B070BD30B52A4C6068DD
:1025700000F00C00042802D0082802D01DE02748F3
:1025800030BD226821680023480202F03F0204D5D2
:1025900025682248C5F3881103E021681348C1F378
:1025A0008811A0FB010100F0A3F82168C1F30141EB
:1025B000491C4900B0FBF1F030BD0C4830BD0A4861
:1025C000124B00681A681649C2F3822206E00648D8
:1025D0000E4B00681A681249C2F34232895CC84047
:1025E00070470000003802403C0000200024F40046
:1025F000380000200000474270380240800E4742F9
:1026000000700040003C0240A82800080838024042
:1026100000000240000802400438024000127A0024
:10262000F4290008044B33F8101003EB8003012257
:102630001869FEF7E7BF00000000002038B50D4D17
:102640000D4A297804464FF47A731068B3FBF1F110
:10265000B0FBF1F0FFF745F850B9102C08D200227A
:1026600021464FF0FF30FFF712F8AC60002032BD7A
:10267000012032BD300000203C00002000B500BF2A
:10268000130096469446103928BFA0E80C50FAD89B
:102690005FEA417C28BF0CC048BF40F8042BC90743
:1026A00028BF20F8022B48BF00F8012B00BD70475F
:1026B00031B5FEF797FA009D15F1010F044602D0DF
:1026C000044908784519FEF78DFA001BA842FAD391
:1026D00031BD00BF300000204AB1000011F8013BBD
:1026E000521E00F8013B1CBF11F8013BF8E7704790
:1026F000D3BBD9B1B2F5803F5BD2022A1ED98C463A
:10270000B1FBF2F102FB11C31B0443EA1043B3FB1C
:10271000F2FC02FB1C3380B240EA0343B3FBF2F04D
:1027200002FB103240EA0C4000237047022A05D910
:102730008446B0FBF2F002FB10C270474AB105D1EB
:1027400000F0010249085FEA3000704700220023D0
:10275000704700F051B80B000200002100207047C4
:10276000F7D3002200237047904271EB030CF2D3A1
:1027700070B5B1FA81F4B3FA83F52C1BA340C4F110
:10278000200532FA05F63343A2405FF00046E640EA
:1027900002E05B085FEA3202841A71EB030524BF92
:1027A000204629467641F4D302000B003000002178
:1027B00070BD70B5B1FA81F4B2FA82F5C4F12004AB
:1027C0006419B4F12006DAD3B2405FF00044F4405B
:1027D000002502E052085FEA3303C61A71EB020ECD
:1027E00024BF3046714664416D41F3D302000B00B3
:1027F0002000290070BD000070470000FEE7FEE7E2
:10280000FEE7FEE7FEE770477047704780B5FFF7C9
:1028100009FBBDE8014000F01DB80420FEF7FCBE36
:102820000748FEF7A7BA0748FEF7A4BA0648FFF71D
:1028300028B80648FEF79EBA0548FEF79BBA000086
:1028400080180020E018002010170020C01700207A
:1028500020180020024A51681078411851607047D2
:102860003000002010B50C490C4C086840F0010005
:10287000086000238B600A68094802400A604C60C7
:1028800000220B68074823F480230B60CA604FF0D6
:102890000061016010BD00000038024010300024CB
:1028A000FFFFF6FE08ED00E0000000000000000061
:1028B0000102030406070809800040002000100000
:1028C0000800800002000100000C0240000C0240E1
:1028D000000C0240000C0240000C024000040240C8
:1028E000000C0240000C024001000000000000004B
:1028F000100000000024F40030B4002412E050F86E
:10290000043BDA0744BF4B445B1E091F042943F80C
:10291000044BFAD21A468D0744BF1C80921CCB0789
:1029200048BF147050F8041B0029E8D130BC704730
:1029300010B5034A7A440832024C7C44A41D03E0DB
:102940001C0000003C00000004E01168101D114450
:1029500088470246A242F8D110BD00009DFFFFFF4C
:10296000981900004000002000000000FFDFFFFF7A
:102970004000000044FFFFFF0000002000000000B6
:1029800000F00DF8002801D0FFF7D2FFAFF3008070
:102990000020AFF30080FEF7EDFA00F002F801200E
:1029A000704700F001B800000746384600F002F812
:1029B000FBE7000080B5AFF30080024A1100182049
:1029C000ABBEFBE7260002000548014603B468469B
:1029D00080F30988AFF30080AFF30080FFF7D0FFEA
:1029E000A5EDF5FE0148804701480047652800082D
:1029F000C92900080000000001020304FFF7FEBF20
:102A0000FFF7FEBFFFF7FEBFFFF7FEBFFFF7FEBFFA
:102A1000FFF7FEBFFFF7FEBFFFF7FEBFFFF7FEBFEA
:102A2000FFF7FEBFFFF7FEBFFFF7FEBFFFF7FEBFDA
:102A3000FFF7FEBFFFF7FEBFFFF7FEBFFFF7FEBFCA
:102A4000FFF7FEBFFFF7FEBFFFF7FEBFFFF7FEBFBA
:102A5000FFF7FEBFFFF7FEBFFFF7FEBFFFF7FEBFAA
:102A6000FFF7FEBFFFF7FEBFFFF7FEBFFFF7FEBF9A
:102A7000FFF7FEBFFFF7FEBFFFF7FEBFFFF7FEBF8A
:102A8000FFF7FEBFFFF7FEBFFFF7FEBFFFF7FEBF7A
:102A9000FFF7FEBFFFF7FEBFFFF7FEBFFFF7FEBF6A
:102AA000FFF7FEBFFFF7FEBFFFF7FEBFFFF7FEBF5A
:102AB000FFF7FEBFFFF7FEBFFFF7FEBFFFF7FEBF4A
:102AC000FFF7FEBFFFF7FEBFFFF7FEBFFFF7FEBF3A
:102AD000FFF7FEBFFFF7FEBFFFF7FEBFFFF7FEBF2A
:102AE000FFF7FEBFFFF7FEBFFFF7FEBFFFF7FEBF1A
:102AF000FFF7FEBFFFF7FEBFFFF7FEBFFFF7FEBF0A
:102B0000FFF7FEBFFFF7FEBFFFF7FEBFFFF7FEBFF9
:102B1000FFF7FEBFFFF7FEBFFFF7FEBFFFF7FEBFE9
:042B2000FFF7FEBFFE
:04000005080029C9FD
:00000001FF
